:020000040800F2
:100000000020002049780008690D00086F0D0008E5
:1000100000000000000000000000000000000000E0
:10002000000000000000000000000000750D000846
:1000300000000000000000007F0D0008890D00088E
:100040009978000800000000997800089978000865
:10005000997800089978000899780008997800083C
:100060000000000099780008997800089978000845
:100070009978000899780008997800080000000035
:100080009978000899780008000000009978000825
:1000900099780008997800089978000899780008FC
:1000A00099780008997800089978000899780008EC
:1000B0009978000800000000000000000000000027
:1000C00010B5064C2378002B07D1054B002B02D02E
:1000D000044800E000BF0123237010BD8800002009
:1000E0000000000044810008044B10B5002B03D031
:1000F0000349044800E000BF10BDC04600000000F6
:100100008C000020448100080023C25C0133002AD7
:10011000FBD1581E70470000002243088B4274D365
:1001200003098B425FD3030A8B4244D3030B8B42F8
:1001300028D3030C8B420DD3FF22090212BA030C01
:100140008B4202D31212090265D0030B8B4219D3E2
:1001500000E0090AC30B8B4201D3CB03C01A524102
:10016000830B8B4201D38B03C01A5241430B8B424A
:1001700001D34B03C01A5241030B8B4201D30B0333
:10018000C01A5241C30A8B4201D3CB02C01A52415A
:10019000830A8B4201D38B02C01A5241430A8B421D
:1001A00001D34B02C01A5241030A8B4201D30B0206
:1001B000C01A5241CDD2C3098B4201D3CB01C01A20
:1001C000524183098B4201D38B01C01A524143092A
:1001D0008B4201D34B01C01A524103098B4201D318
:1001E0000B01C01A5241C3088B4201D3CB00C01A85
:1001F000524183088B4201D38B00C01A52414308FD
:100200008B4201D34B00C01A5241411A00D2014621
:10021000524110467047FFE701B5002000F006F894
:1002200002BDC0460029F7D076E770477047C04648
:1002300090B587B004AFBB1D00221A70FC1D2C487E
:10024000FA239B00029301230193BB1D009301231A
:100250000F22D52101F060FA03002370BB1D1B782B
:100260006A2B41D17B1D4C221A70FC1D20480A23A9
:100270000293012301937B1D009301231122D421BA
:1002800001F01CF9030023707B1D4A221A70FC1D2B
:1002900017480A230293012301937B1D0093012336
:1002A0001022D42101F00AF9030023707B1D0022E3
:1002B0001A700F480A230293012301937B1D0093B8
:1002C00001231622D42101F0F9F87B1D00221A70B7
:1002D00007480A230293012301937B1D0093012306
:1002E0001722D42101F0EAF8C046BD4603B090BD04
:1002F0004C01002080B588B004AF3B1D18000623D8
:100300001A00002107F0FDFA0E23FB1800221A80C4
:100310000C23FB1800221A800A23FB1800221A80E3
:100320002748FA239B000293062301933B1D009369
:1003300001232822D52101F0EFF93B1D5B781B0238
:100340001AB23B1D1B781BB213431AB21D4B1A8005
:100350003B1DDB781B021AB23B1D9B781BB213437B
:100360001AB2194B1A803B1D5B791B021AB23B1D56
:100370001B791BB213431AB2144B1A80114B002283
:100380009A5E134B1A80104B00229A5E114B1A8012
:100390000E4B00229A5E104B1A800E23FB180C4A5B
:1003A00012881A800C23FB180A4A12881A800A2322
:1003B000FB18094A12881A80C046BD4604B080BDA9
:1003C0004C010020E20000209C010020A001002040
:1003D000A40100209E010020A801002080B588B063
:1003E00004AF3B1D180006231A00002107F089FA0C
:1003F0000E23FB1800221A800C23FB1800221A80FF
:100400000A23FB1800221A802748FA239B00029334
:10041000062301933B1D009301232222D52101F0E5
:100420007BF93B1D5B781B021AB23B1D1B781BB28C
:1004300013431AB21D4B1A803B1DDB781B021AB204
:100440003B1D9B781BB213431AB2194B1A803B1DFC
:100450005B791B021AB23B1D1B791BB213431AB204
:10046000144B1A80114B00229A5E134B1A80104BCA
:1004700000229A5E114B1A800E4B00229A5E104B9E
:100480001A800E23FB180C4A12881A800C23FB18C2
:100490000A4A12881A800A23FB18094A12881A800D
:1004A000C046BD4604B080BD4C010020980100202C
:1004B00030020020A6010020E0000020A201002060
:1004C0003202002080B586B004AF3B1D00221A70B6
:1004D0003B1D00225A7010480A2302930223019305
:1004E0003B1D009301232022D52101F015F93B1D6E
:1004F0005B781B021AB23B1D1B781BB213431AB266
:10050000064B1A80054B00229A5E054B1A80C046A6
:10051000BD4602B080BDC0464C010020480100200D
:100520009A010020F0B5C64600B5914CA54406AF2F
:1005300000F064FC00F03EF900F056FA00F0A6F975
:1005400000F0E4F900F020FA03F07EF90023894A74
:1005500008218C46BC446244136000238F22D200E1
:1005600008218C46BC4462441360834A834B0821B3
:100570008C46BC4463441A70FFF75AFE00238F2256
:10058000D20008218C46BC4462441360E3E07C4BFB
:100590000822BA18D4187B4991239B00082294465C
:1005A000BC4463440022180006F026F803002370C0
:1005B0008F23DB0008229446BC4463441A687249C6
:1005C0000C23FB18180007F0A5F90C23FB181800E2
:1005D000FFF79AFD03001A000C23FB189A18664BCC
:1005E0001000190005231A0007F082F9644B082255
:1005F000BA18D4180C23F918182308229446BC44BE
:1006000063441322180006F049F8030023705F4A80
:10061000182308218C46BC4463441100180006F0DE
:1006200065FE0023534A08218C46BC446244136093
:100630005EE0574B00221A80564B00221A80564B20
:1006400000221A80554B00221A80554B00221A8036
:10065000544B00221A80544B00221A80FFF74AFEA6
:10066000FFF7BCFEFFF72EFF0A2000F02BFC444BE7
:1006700008229446BC4463441B78002B2BD1454B85
:1006800000229B5E7B60444B00215B5E3B60434BE2
:1006900000215B5E1A00424B00215B5E1C00414B57
:1006A00000215B5E1D00404B00215B5E1E00384B4D
:1006B00000215B5E98463D49182008239C46BC44B7
:1006C00060444346049303960295019400923B686C
:1006D0007A6806F00BFE274B08229446BC4463441C
:1006E0001B680133234A08218C46BC4462441360D2
:1006F000204B08229446BC4463441B682C4A934216
:1007000097DD1C4B08229446BC4463441A68FA23C4
:10071000DB009A4207D1182308229446BC44634464
:10072000180006F067FD8F23DB0008229446BC44C6
:1007300063441B68142B19D08F23DB0008229446D6
:10074000BC4463441B6801338F22D20008218C46CD
:10075000BC44624413608F23DB0008229446BC44EF
:1007600063441B68132B00DC11E705E7C04603E771
:1007700060FBFFFF7C0400005C8100087704000040
:100780007604000064810008688100087481000814
:100790009A010020A40100209E010020A801002051
:1007A000E0000020A2010020320200209881000811
:1007B000CF07000080B594B000AF2023FB181800CD
:1007C00030231A00002107F09CF81023FB181800B2
:1007D00010231A00002107F094F83B0018001023A2
:1007E0001A00002107F08DF82023FB1802221A605E
:1007F0002023FB180122DA602023FB1810221A6143
:100800002023FB1802221A622023FB1800225A62BE
:100810002023FB18A02292039A622023FB180022B7
:10082000DA622023FB18180001F094FB031E01D0AC
:1008300000F078F91023FB1807221A601023FB1828
:1008400002225A601023FB1800229A601023FB1822
:100850000022DA601023FB180121180001F094FE39
:10086000031E01D000F05EF93B0020221A603B001D
:100870000022DA603B00180001F0D4FF031E01D013
:1008800000F050F9C046BD4614B080BD80B500AF41
:100890001B4B1C4A1A601A4B1B4A5A60184B002209
:1008A0009A60174B0122DA60154B00221A61144B33
:1008B00000225A61124B00229A61114B0022DA6128
:1008C0000F4B00221A620E4B180000F061FD031E50
:1008D00001D000F027F90A4B0021180001F0A2FA1C
:1008E000031E01D000F01EF9054B0021180001F095
:1008F000E5FA031E01D000F015F9C046BD4680BDE3
:100900004C010020005400400E09002080B500AFCB
:100910001B4B1C4A1A601A4B822252005A60184B19
:1009200000229A60164BE022D200DA60144B0022BB
:100930001A61134B00225A61114B802292009A6176
:100940000F4B3022DA610E4B00221A620C4B002250
:100950005A620B4B00229A62094B0722DA62084B5B
:1009600000221A63064B08225A63054B180002F056
:1009700027F8031E01D000F0D5F8C046BD4680BD63
:10098000E40000200038004080B500AF144B154A49
:100990001A60134B962212025A60114B00229A6081
:1009A0000F4B0022DA600E4B00221A610C4B0C2216
:1009B0005A610B4B00229A61094B0022DA61084B05
:1009C00000221A62064B00225A62054B180002F000
:1009D000F7FB031E01D000F0A5F8C046BD4680BD60
:1009E000AC0100200044004080B58AB000AF142361
:1009F000FB18180014231A00002106F082FF464B52
:100A0000454A5269802109030A435A61424B5A6997
:100A100080231B0313403B613B693F4B3E4A5269B5
:100A20008021C9030A435A613B4B5A698023DB0387
:100A30001340FB60FB68384B374A526980218902BA
:100A40000A435A61344B5A6980239B021340BB60AE
:100A5000BB68314B304A52698021C9020A435A614E
:100A60002D4B5A698023DB0213407B607B68902307
:100A7000DB0500222021180000F06CFC274B00222F
:100A80000221180000F066FC1423FB18802292015A
:100A90001A601423FB18842292035A601423FB1853
:100AA00000229A601423FB181D4A1900100000F060
:100AB000E1FA1423FB1820221A601423FB180122E8
:100AC0005A601423FB1800229A601423FB1800229A
:100AD000DA601423FA189023DB051100180000F0E7
:100AE000C9FA1423FB1802221A601423FB180122EE
:100AF0005A601423FB1800229A601423FB1800226A
:100B0000DA601423FB18054A1900100000F0B2FA4D
:100B1000C046BD460AB080BD001002400004004837
:100B20000008004880B500AF72B6FEE780B582B01D
:100B300000AF0F4B0E4A926901210A439A610C4B98
:100B40009B69012213407B607B68094B084AD2698C
:100B5000802149050A43DA61054BDA6980235B0588
:100B600013403B603B68C046BD4602B080BDC046F6
:100B70000010024080B58AB000AF78601423FB18E3
:100B8000180014231A00002106F0BBFE7B681B68C6
:100B90001F4A934237D11F4B1E4A52698021C90216
:100BA0000A435A611B4B5A698023DB0213403B61A5
:100BB0003B691423FB18C02292001A601423FB180F
:100BC00012225A601423FB1800229A601423FB1887
:100BD0000322DA601423FB1801221A611423FB1884
:100BE0000D4A1900100000F045FA0A4B094AD26973
:100BF000802189030A43DA61064BDA6980239B036B
:100C00001340FB60FB68C046BD460AB080BDC046CD
:100C100000540040001002400004004880B58AB033
:100C200000AF78601423FB18180014231A00002169
:100C300006F067FE7B681B681F4A934237D11F4B43
:100C40001E4AD2698021C9010A43DA611B4BDA6965
:100C50008023DB0113403B613B69184B174A526903
:100C60008021C9020A435A61144B5A698023DB026E
:100C70001340FB60FB681423FB18E02212021A6089
:100C80001423FB1802225A601423FB1800229A60D6
:100C90001423FB180322DA601423FB1800221A61C4
:100CA0001423FB18064A1900100000F0E3F9C046AF
:100CB000BD460AB080BDC04600380040001002406A
:100CC0000004004880B58AB000AF78601423FB1898
:100CD000180014231A00002106F013FE7B681B681D
:100CE0001F4A934237D11F4B1E4AD2698021890285
:100CF0000A43DA611B4BDA6980239B0213403B6194
:100D00003B69184B174A5269802189020A435A618C
:100D1000144B5A6980239B021340FB60FB68142329
:100D2000FB180C221A601423FB1802225A601423A9
:100D3000FB1800229A601423FB180022DA601423A7
:100D4000FB1801221A611423FA189023DB05110005
:100D5000180000F08FF9C046BD460AB080BDC046FD
:100D6000004400400010024080B500AFFEE780B5AF
:100D700000AFFEE780B500AFC046BD4680BD80B580
:100D800000AFC046BD4680BD80B500AF00F07EF824
:100D9000C046BD4680BD000080B584B000AF78601D
:100DA000114B1B68002B02D10F4B104A1A600E4BDF
:100DB0001B68FB600C4B1A687B68D3186A46934229
:100DC00007D906F06BFD03000C221A6001235B4279
:100DD00006E0054B1A687B68D218034B1A60FB6863
:100DE0001800BD4604B080BDA4000020A806002065
:100DF00080B500AFC046BD4680BD000080B500AFE5
:100E0000074B074A126810210A431A60002000F0BD
:100E100009F8FFF78BFE00231800BD4680BDC046D1
:100E20000020024090B583B000AF7860144B1C687E
:100E3000144B1B781900FA239800FFF76DF9030093
:100E400019002000FFF768F90300180000F004F90A
:100E5000031E01D001230FE07B68032B0BD87968B8
:100E600001235B420022180000F0E0F8064B7A688C
:100E70001A60002300E001231800BD4603B090BDB6
:100E800000000020080000200400002080B500AF12
:100E9000054B1B781A00054B1B68D218034B1A60D0
:100EA000C046BD4680BDC046080000203402002078
:100EB00080B500AF024B1B681800BD4680BDC04620
:100EC0003402002080B584B000AF7860FFF7F0FFF7
:100ED0000300BB607B68FB60FB68013305D0094BF6
:100EE0001B781A00FB689B18FB60C046FFF7E0FF09
:100EF0000200BB68D21AFB689A42F7D3C046BD46CF
:100F000004B080BD08000020B0B582B000AF020080
:100F10003960FB1D1A70FB1D1B787F2B28D82F4CC6
:100F2000FB1D1B785BB29B082C49FA1D127852B24C
:100F30009208C03292005258F91D09780800032126
:100F40000140C900FF2088400100C94311403A68B0
:100F50009201FF201040FA1D1278150003222A404A
:100F6000D200904002000A43C0339B001A5131E086
:100F70001B4CFB1D1B781A000F231340083B9908DC
:100F8000174AFB1D1B7818000F230340083B9B08E2
:100F900006339B00D31804331B68FA1D1278100027
:100FA00003220240D200FF2090400200D2431A40A8
:100FB0003B689B01FF201840FB1D1B781D0003238D
:100FC0002B40DB00984003001A438B1D9B00E31865
:100FD00004331A60C046BD4602B0B0BD00E100E077
:100FE00000ED00E080B582B000AF78607B68013B27
:100FF0000C4A934201D9012310E00B4B7A68013A65
:101000005A6001235B4203211800FFF77DFF064B66
:1010100000229A60044B07221A6000231800BD4684
:1010200002B080BDFFFFFF0010E000E080B584B09B
:1010300000AFB9607A600F23FB18021C1A70BA68FF
:101040000F23FB181B785BB211001800FFF75CFF41
:10105000C046BD4604B080BD80B582B000AF7860A8
:101060007B681800FFF7BEFF03001800BD4602B002
:1010700080BD000080B586B000AF78603960002385
:101080007B614FE13B681B6801217A6991400A004E
:101090001340FB60FB68002B00D140E13B685B68BC
:1010A00003221340012B05D03B685B6803221340E9
:1010B000022B30D17B689B683B617B695B0003221C
:1010C0009A401300DA433B6913403B613B68DA689E
:1010D0007B695B009A4013003A6913433B617B686C
:1010E0003A699A607B685B683B6101227B699A4040
:1010F0001300DA433B6913403B613B685B681B09A3
:1011000001221A407B699A4013003A6913433B61FC
:101110007B683A695A603B685B6803221340032B83
:1011200017D07B68DB683B617B695B0003229A40D8
:101130001300DA433B6913403B613B689A687B6963
:101140005B009A4013003A6913433B617B683A693C
:10115000DA603B685B6803221340022B23D17B6972
:10116000DA087B6808329200D3583B617B6907221A
:1011700013409B000F229A401300DA433B6913404F
:101180003B613B681A697B6907210B409B009A40D1
:1011900013003A6913433B617B69DA087B680832C4
:1011A00092003969D1507B681B683B617B695B00A9
:1011B00003229A401300DA433B6913403B613B68CA
:1011C0005B6803221A407B695B009A4013003A690E
:1011D00013433B617B683A691A603B685A68C023D5
:1011E0009B02134000D19AE0544B544A926901216A
:1011F0000A439A61514B9B6901221340BB60BB6853
:101200004F4A7B699B0802339B009B583B617B697B
:10121000032213409B000F229A401300DA433B69DC
:1012200013403B617A689023DB059A4213D07B68B8
:10123000444A93420DD07B68434A934207D07B686F
:10124000424A934201D1032306E0052304E002232E
:1012500002E0012300E000237A6903210A409200A2
:1012600093403A6913433B6135497B699B080233DC
:101270009B003A695A50364B1B683B61FB68DA4366
:101280003B6913403B613B685A6880235B02134013
:1012900003D03A69FB6813433B612D4B3A691A60EE
:1012A0002B4B5B683B61FB68DA433B6913403B6156
:1012B0003B685A6880239B02134003D03A69FB685D
:1012C00013433B61224B3A695A60214B9B683B6157
:1012D000FB68DA433B6913403B613B685A688023F3
:1012E0005B03134003D03A69FB6813433B61184B1F
:1012F0003A699A60164BDB683B61FB68DA433B69ED
:1013000013403B613B685A6880239B03134003D022
:101310003A69FB6813433B610D4B3A69DA607B69BC
:1013200001337B613B681A687B69DA40131E00D089
:10133000A8E6C046BD4606B080BDC04600100240CB
:10134000000001400004004800080048000C00486C
:101350000004014080B582B000AF78600800110041
:10136000BB1C021C1A807B1C0A1C1A707B1C1B787D
:10137000002B04D0BB1C1A887B689A6103E0BB1C5D
:101380001A887B689A62C046BD4602B080BD0000E4
:1013900080B582B000AF78607B68002B01D101235B
:1013A00081E07B6841229B5CDBB2002B07D17B682C
:1013B0004022002199547B681800FFF7DBFB7B6813
:1013C0004122242199547B681B687A68126812684C
:1013D00001218A431A607B681B687A685268344925
:1013E0000A401A617B681B687A6812689268314902
:1013F0000A409A607B68DB68012B08D17B681B6818
:101400007A689268802109020A439A6007E07B6843
:101410001B687A689268842109020A439A607B6893
:10142000DB68022B04D17B681B68802212015A60A2
:101430007B681B687A68126852681F490A435A60C1
:101440007B681B687A681268D2681A490A40DA60B9
:101450007B681B687A6811697A68526911437A68F7
:10146000926912020A43DA607B681B687A68D16964
:101470007A68126A0A431A607B681B687A68126885
:10148000126801210A431A607B6800225A647B6853
:101490004122202199547B6800221A637B684222F2
:1014A0000021995400231800BD4602B080BDC046FB
:1014B000FFFFFFF0FF7FFFFF0080000290B589B0C3
:1014C00002AFF8600C00100019000A23FB18221C60
:1014D0001A800823FB18021C1A80BB1D0A1C1A80E4
:1014E000FB6841229B5CDBB2202B00D00CE1BB6A85
:1014F000002B04D02C23FB181B88002B05D1FB6884
:10150000802292005A640123FFE0FB6840229B5C2A
:10151000012B01D10223F8E0FB68402201219954FC
:10152000FFF7C6FC03007B6180231902F8687B6922
:1015300000931923012200F00BFB031E01D00123AD
:10154000E3E0FB68412221219954FB6842224021BB
:101550009954FB6800225A64FB68BA6A5A62FB68B5
:101560002C22BA1812885A85FB6800225A63BB1DC8
:101570001C880823FB181A880A23FB181988F868A6
:101580007B6901933B6B0093230000F0F9F9031E84
:1015900005D0FB684022002199540123B5E0FB6887
:1015A0005B8D9BB2FF2B11D9FB68FF221A85FB686C
:1015B0001B8DDAB280235C040A23FB181988F868B3
:1015C00000230093230000F0F7FB12E0FB685B8D23
:1015D0009AB2FB681A85FB681B8DDAB280239C04E3
:1015E0000A23FB181988F86800230093230000F0F1
:1015F000E3FB7A69396BFB68180000F0E8FA031E18
:1016000001D0012381E0FB681B68FA68526A1278F6
:101610009A62FB685B6A5A1CFB685A62FB685B8DC6
:101620009BB2013B9AB2FB685A85FB681B8D013B5C
:101630009AB2FB681A85FB685B8D9BB2002B3AD08F
:10164000FB681B8D002B36D13A6BF8687B690093E1
:1016500013000022802100F07BFA031E01D0012339
:1016600053E0FB685B8D9BB2FF2B11D9FB68FF2217
:101670001A85FB681B8DDAB280235C040A23FB18F1
:101680001988F86800230093230000F095FB12E00E
:10169000FB685B8D9AB2FB681A85FB681B8DDAB21A
:1016A00080239C040A23FB181988F8680023009300
:1016B000230000F081FBFB685B8D9BB2002B98D16F
:1016C0007A69396BFB68180000F0C0FA031E01D07C
:1016D00001231AE0FB681B682022DA61FB681B68A3
:1016E000FA68126852680B490A405A60FB68412246
:1016F00020219954FB68422200219954FB68402222
:1017000000219954002300E002231800BD4607B0D1
:1017100090BDC04600E800FE90B589B002AFF86009
:101720000C00100019000A23FB18221C1A80082341
:10173000FB18021C1A80BB1D0A1C1A80FB68412280
:101740009B5CDBB2202B00D010E1BB6A002B04D0E5
:101750002C23FB181B88002B05D1FB6880229200EC
:101760005A64012303E1FB6840229B5C012B01D1F9
:101770000223FCE0FB68402201219954FFF798FB0B
:1017800003007B6180231902F8687B6900931923A9
:10179000012200F0DDF9031E01D00123E7E0FB6820
:1017A000412222219954FB68422240219954FB682E
:1017B00000225A64FB68BA6A5A62FB682C22BA1883
:1017C00012885A85FB6800225A63BB1D1C880823B7
:1017D000FB181A880A23FB181988F8687B6901939B
:1017E0003B6B0093230000F02FF9031E05D0FB682C
:1017F0004022002199540123B9E0FB685B8D9BB224
:10180000FF2B11D9FB68FF221A85FB681B8DDAB20A
:1018100080235C040A23FB181988F868564B009350
:10182000230000F0C9FA12E0FB685B8D9AB2FB68F6
:101830001A85FB681B8DDAB280239C040A23FB18EF
:101840001988F8684C4B0093230000F0B5FA3A6B06
:10185000F8687B69009313000022042100F078F9F6
:10186000031E01D0012382E0FB685A6AFB681B68F3
:101870005B6ADBB21370FB685B6A5A1CFB685A62D6
:10188000FB681B8D013B9AB2FB681A85FB685B8D78
:101890009BB2013B9AB2FB685A85FB685B8D9BB299
:1018A000002B3AD0FB681B8D002B36D13A6BF868C1
:1018B0007B69009313000022802100F049F9031E88
:1018C00001D0012353E0FB685B8D9BB2FF2B11D944
:1018D000FB68FF221A85FB681B8DDAB280235C044B
:1018E0000A23FB181988F86800230093230000F0EE
:1018F00063FA12E0FB685B8D9AB2FB681A85FB689D
:101900001B8DDAB280239C040A23FB181988F8681F
:1019100000230093230000F04FFAFB685B8D9BB21D
:10192000002B94D17A69396BFB68180000F08EF9AE
:10193000031E01D001231AE0FB681B682022DA6134
:10194000FB681B68FA68126852680C490A405A60C2
:10195000FB68412220219954FB68422200219954BE
:10196000FB68402200219954002300E00223180064
:10197000BD4607B090BDC0460024008000E800FED0
:1019800090B587B002AFF8600C00100019000A2370
:10199000FB18221C1A800823FB18021C1A80BB1D8E
:1019A0000A1C1A80BB1D1B88DAB280235C040A2340
:1019B000FB181988F868234B0093230000F0FCF90A
:1019C0007A6A396AFB68180000F001F9031E01D039
:1019D000012333E0BB1D1B88012B07D1FB681B686B
:1019E0000822BA181288D2B29A6219E0FB681B6802
:1019F0000822BA181288120A92B2D2B29A627A6A8D
:101A0000396AFB68180000F0E2F8031E01D00123D8
:101A100014E0FB681B680822BA181288D2B29A62D6
:101A20003A6AF8687B6A009313000022802100F074
:101A30008FF8031E01D0012300E000231800BD46EB
:101A400005B090BD0020008090B587B002AFF8606F
:101A50000C00100019000A23FB18221C1A8008230E
:101A6000FB18021C1A80BB1D0A1C1A80BB1D1B8898
:101A7000DAB20A23FB181988F868234B0093002375
:101A800000F09AF97A6A396AFB68180000F09FF84A
:101A9000031E01D0012333E0BB1D1B88012B07D19E
:101AA000FB681B680822BA181288D2B29A6219E041
:101AB000FB681B680822BA181288120A92B2D2B2C6
:101AC0009A627A6A396AFB68180000F080F8031E8F
:101AD00001D0012314E0FB681B680822BA181288A1
:101AE000D2B29A623A6AF8687B6A009313000022C5
:101AF000402100F02DF8031E01D0012300E0002357
:101B00001800BD4605B090BD0020008080B582B0B1
:101B100000AF78607B681B689B6902221340022B30
:101B200003D17B681B6800229A627B681B689B69F3
:101B300001221340012B07D07B681B687A6812686A
:101B4000926901210A439A61C046BD4602B080BD38
:101B500080B584B000AFF860B9603B60FB1D1A70BF
:101B600021E03B6801331ED0FFF7A2F90200BB69F8
:101B7000D21A3B689A4202D83B68002B13D1FB680B
:101B80005B6C20221A43FB685A64FB6841222021C7
:101B90009954FB68422200219954FB68402200219D
:101BA000995401230FE0FB681B689B69BA681A40CF
:101BB000BB68D31A5A425341DBB21A00FB1D1B7893
:101BC0009A42CED000231800BD4604B080BD80B537
:101BD00084B000AFF860B9607A602BE07A68B968C9
:101BE000FB68180000F06EF8031E01D0012329E005
:101BF000BB6801331ED0FFF75BF902007B68D21A85
:101C0000BB689A4202D8BB68002B13D1FB685B6C9F
:101C100020221A43FB685A64FB6841222021995410
:101C2000FB68422200219954FB684022002199540C
:101C3000012307E0FB681B689B6902221340022B0B
:101C4000CCD100231800BD4604B080BD80B584B05F
:101C500000AFF860B9607A6028E07A68B968FB681C
:101C6000180000F02FF8031E01D0012326E0FFF733
:101C70001FF902007B68D21ABB689A4202D8BB687F
:101C8000002B13D1FB685B6C20221A43FB685A645B
:101C9000FB68412220219954FB684222002199547B
:101CA000FB68402200219954012307E0FB681B6870
:101CB0009B6920221340202BCFD100231800BD4662
:101CC00004B080BD80B584B000AFF860B9607A60C0
:101CD000FB681B689B6910221340102B64D1FB68C2
:101CE0001B685A6880239B041A4080239B049A42F5
:101CF0002BD0FB681B68FA68126852688021C90102
:101D00000A435A6021E0BB6801331ED0FFF7D0F8C8
:101D100002007B68D21ABB689A4202D8BB68002BCB
:101D200013D1FB685B6C20221A43FB685A64FB6882
:101D3000412220219954FB68422200219954FB68DA
:101D400040220021995401232FE0FB681B689B6906
:101D500020221340202BD6D1FB681B681022DA61A9
:101D6000FB681B682022DA61FB681800FFF7CEFED3
:101D7000FB681B68FA68126852680E490A405A608C
:101D8000FB685B6C04221A43FB685A64FB684122BF
:101D900020219954FB68422200219954FB6840227B
:101DA00000219954012300E000231800BD4604B02F
:101DB00080BDC04600E800FE90B585B000AFF86079
:101DC000080011007B600A23FB18021C1A800923FB
:101DD000FB180A1C1A70FB681B68FA6812685268C4
:101DE000396A480D8021C90001400D480143C943AB
:101DF00011400A22BA1812889205900D0922BA18C9
:101E000012781404FF221204224010437A6810430F
:101E10003A6A02430A435A60C046BD4605B090BDC7
:101E2000FF63FF0380B582B000AF786039607B68E4
:101E300041229B5CDBB2202B38D17B6840229B5C2B
:101E4000012B01D1022332E07B6840220121995409
:101E50007B684122242199547B681B687A68126848
:101E6000126801218A431A607B681B687A681268CD
:101E7000126811490A401A607B681B687A68126808
:101E800011683A680A431A607B681B687A681268AE
:101E9000126801210A431A607B684122202199546B
:101EA0007B68402200219954002300E0022318009F
:101EB000BD4602B080BDC046FFEFFFFF80B584B0D5
:101EC00000AF786039607B6841229B5CDBB2202BDD
:101ED00039D17B6840229B5C012B01D1022333E086
:101EE0007B684022012199547B6841222421995426
:101EF0007B681B687A681268126801218A431A603D
:101F00007B681B681B68FB60FB68114A1340FB6021
:101F10003B681B02FA681343FB607B681B68FA6826
:101F20001A607B681B687A681268126801210A438C
:101F30001A607B684122202199547B68402200214D
:101F40009954002300E002231800BD4604B080BD70
:101F5000FFF0FFFF80B588B000AF78607B68002B92
:101F600001D1012302E37B681B680122134000D1E9
:101F70008DE0C44B5B680C221340042B0ED0C14B88
:101F80005B680C221340082B16D1BE4B5A68802385
:101F90005B021A4080235B029A420DD1B94B1A684A
:101FA00080239B02134000D170E07B685B68002BAC
:101FB00000D06BE00123D9E27B685B68012B07D17D
:101FC000B04BB04A1268802149020A431A602FE0E0
:101FD0007B685B68002B0CD1AA4BAA4A1268AA49FD
:101FE0000A401A60A74BA74A1268A8490A401A601B
:101FF0001EE07B685B68052B0ED1A24BA14A1268DC
:102000008021C9020A431A609E4B9E4A12688021B1
:1020100049020A431A600BE09A4B9A4A12689A499D
:102020000A401A60974B974A126898490A401A600A
:102030007B685B68002B14D0FEF73AFF0300BB619E
:1020400008E0FEF735FF0200BB69D31A642B01D903
:1020500003238BE28B4B1A6880239B021340F0D042
:1020600015E0FEF725FF0300BB6108E0FEF720FF47
:102070000200BB69D31A642B01D9032376E2814B9A
:102080001A6880239B021340F0D100E0C0467B68B1
:102090001B680222134000D169E07A4B5B680C2276
:1020A00013400BD0774B5B680C221340082B1CD1DC
:1020B000744B5A6880235B02134016D1714B1B6826
:1020C0000222134005D07B68DB68012B01D001237D
:1020D0004CE26C4A6B4B1B68F8218B4319007B6800
:1020E0001B69DB000B43136041E07B68DB68002B5E
:1020F00024D0644B634A126801210A431A60FEF738
:10210000D7FE0300BB6108E0FEF7D2FE0200BB6908
:10211000D31A022B01D9032328E25A4B1B6802224F
:102120001340F1D0574A574B1B68F8218B431900D5
:102130007B681B69DB000B43136018E0514B514A6D
:10214000126801218A431A60FEF7B2FE0300BB61E8
:1021500008E0FEF7ADFE0200BB69D31A022B01D9DD
:10216000032303E2474B1B6802221340F1D17B6833
:102170001B680822134036D07B68DB69002B19D01E
:10218000404B404A526A01210A435A62FEF790FED0
:102190000300BB6108E0FEF78BFE0200BB69D31AA7
:1021A000022B01D90323E1E1364B5B6A0222134083
:1021B000F1D018E0334B334A526A01218A435A6204
:1021C000FEF776FE0300BB6108E0FEF771FE020039
:1021D000BB69D31A022B01D90323C7E1294B5B6AE0
:1021E00002221340F1D17B681B680422134000D106
:1021F000B6E01F23FB1800221A70224BDA698023F5
:102200005B05134011D11F4B1E4AD269802149053D
:102210000A43DA611B4BDA6980235B051340FB60DC
:10222000FB681F23FB1801221A70194B1A688023C0
:102230005B0013401AD1164B154A126880214900E1
:102240000A431A60FEF734FE0300BB6108E0FEF7A4
:102250002FFE0200BB69D31A642B01D9032385E149
:102260000B4B1A6880235B001340F0D07B689B689F
:10227000012B0FD1034B034A126A01210A431A6250
:1022800036E0C04600100240FFFFFEFFFFFFFBFFED
:10229000007000407B689B68002B0CD1B54BB54AA1
:1022A000126A01218A431A62B24BB24A126A0421AD
:1022B0008A431A621CE07B689B68052B0CD1AD4BEE
:1022C000AC4A126A04210A431A62AA4BA94A126A4A
:1022D00001210A431A620BE0A64BA64A126A0121A9
:1022E0008A431A62A34BA34A126A04218A431A62E0
:1022F0007B689B68002B14D0FEF7DAFD0300BB61FE
:1023000009E0FEF7D5FD0200BB69D31A9A4A934251
:1023100001D903232AE1974B1B6A02221340F0D014
:1023200013E0FEF7C5FD0300BB6109E0FEF7C0FD49
:102330000200BB69D31A904A934201D9032315E1E5
:102340008C4B1B6A02221340F0D11F23FB181B7811
:10235000012B05D1874B874AD26988490A40DA6147
:102360007B681B681022134063D07B685B69012B7C
:102370002AD1804B7F4A526B04210A435A637D4B1A
:102380007C4A526B01210A435A63FEF791FD030018
:10239000BB6108E0FEF78CFD0200BB69D31A022B7B
:1023A00001D90323E2E0734B5B6B02221340F1D0AF
:1023B000704A704B5B6BF8218B4319007B689B69FB
:1023C000DB000B43536334E07B685B69053311D159
:1023D000684B684A526B04218A435A63654A654BCD
:1023E0005B6BF8218B4319007B689B69DB000B4317
:1023F00053631EE05F4B5F4A526B04210A435A63EA
:102400005C4B5C4A526B01218A435A63FEF750FDD4
:102410000300BB6108E0FEF74BFD0200BB69D31A65
:10242000022B01D90323A1E0524B5B6B0222134024
:10243000F1D17B681B6A002B00D196E04D4B5B68A5
:102440000C221340082B00D16AE07B681B6A022B28
:102450004BD1484B474A126849490A401A60FEF777
:1024600027FD0300BB6108E0FEF722FD0200BB6907
:10247000D31A022B01D9032378E03E4B1A6880233C
:102480009B041340F0D13B4A3A4BDB6A0F218B434C
:1024900019007B68DB6A0B43D362364A354B5B68B5
:1024A000384919407B68986A7B685B6A03430B4331
:1024B0005360304B2F4A1268802149040A431A6046
:1024C000FEF7F6FC0300BB6108E0FEF7F1FC02003A
:1024D000BB69D31A022B01D9032347E0254B1A68A5
:1024E00080239B041340F0D03FE0224B214A126826
:1024F00023490A401A60FEF7DBFC0300BB6108E0D9
:10250000FEF7D6FC0200BB69D31A022B01D90323C4
:102510002CE0184B1A6880239B041340F0D124E070
:102520007B681B6A012B01D101231FE0114B5B6803
:102530007B61104BDB6A3B617A6980235B021A4046
:102540007B685B6A9A420ED13B690F221A407B6816
:10255000DB6A9A4207D17A69F0239B031A407B68B1
:102560009B6A9A4201D0012300E000231800BD4677
:1025700008B080BD0010024088130000FFFFFFEF8D
:10258000FFFFFFFEFFFFC2FF80B584B000AF7860A1
:1025900039607B68002B01D10123B2E05B4B1B68E3
:1025A00001221A403B689A4211D2584B574A12688E
:1025B00001218A4311003A680A431A60534B1B6891
:1025C00001221A403B689A4201D0012399E07B68BE
:1025D0001B680222134015D07B681B68042213403D
:1025E00006D04B4B4A4A5268E021C9000A435A6060
:1025F000474A474B5B68F0218B4319007B689B6817
:102600000B4353607B681B680122134040D07B68FA
:102610005B68012B07D13E4B1A6880239B02134055
:1026200014D101236DE07B685B68022B07D1384B26
:102630001A6880239B04134008D1012361E0344BC6
:102640001B680222134001D101235AE0304A304B6B
:102650005B6803218B4319007B685B680B43536005
:10266000FEF726FC0300FB6009E0FEF721FC0200F8
:10267000FB68D31A274A934201D9032341E0244B34
:102680005B680C221A407B685B689B009A42ECD125
:102690001E4B1B6801221A403B689A4211D91B4B02
:1026A0001A4A126801218A4311003A680A431A60E3
:1026B000164B1B6801221A403B689A4201D0012345
:1026C0001FE07B681B680422134008D0104A104B9F
:1026D0005B68114919407B68DB680B43536000F06D
:1026E00021F801000A4B5B681B090F2213400B4ABB
:1026F000D35C0A00DA400A4B1A600020FEF792FB16
:1027000000231800BD4604B080BDC0460020024032
:102710000010024088130000FFF8FFFF1C82000831
:102720000000002090B58FB000AF1423FB18284A9A
:1027300013CA13C312681A603B1D264A13CA13C377
:1027400012681A600023FB620023BB6200237B63D4
:1027500000237B6200233B631F4B5B68FB62FB6AC9
:102760000C221340042B02D0082B03D027E01B4B74
:102770003B6327E0FB6A9B0C0F2213401422BA181C
:10278000D35C7B62144BDB6A0F2213403A1DD35C8F
:10279000BB62FA6A80235B02134009D0B96A0F4812
:1027A000FDF7BAFC03001A007B6A53437B6303E026
:1027B0007B6A0B4A53437B637B6B3B6302E0074BB3
:1027C0003B63C0463B6B1800BD460FB090BDC04692
:1027D000B8810008C88100080010024000127A0089
:1027E00000093D0080B500AF024B1B681800BD46D4
:1027F00080BDC0460000002080B500AFFFF7F2FFAB
:102800000100064B5B681B0A07221340044AD35C95
:10281000D9400B001800BD4680BDC04600100240E4
:102820002C82000880B586B000AF786000233B6141
:102830000023FB607B681A6880235B02134000D191
:102840008EE01723FB1800221A70574BDA69802399
:102850005B05134011D1544B534AD269802149057D
:102860000A43DA61504BDA6980235B051340BB6091
:10287000BB681723FB1801221A704C4B1A6880237F
:102880005B0013401AD1494B484A12688021490025
:102890000A431A60FEF70CFB03003B6108E0FEF7F9
:1028A00007FB02003B69D31A642B01D9032376E0AE
:1028B0003E4B1A6880235B001340F0D03A4B1A6AF3
:1028C000C0239B001340FB60FB68002B34D07B6867
:1028D0005A68C0239B001A40FB689A422CD0324BA6
:1028E0001B6A334A1340FB602F4B2F4A126A802128
:1028F00049020A431A622C4B2B4A126A2D490A409C
:102900001A62294BFA681A62FB680122134013D03D
:10291000FEF7CEFA03003B6109E0FEF7C9FA0200B8
:102920003B69D31A244A934201D9032337E01E4B53
:102930001B6A02221340F0D01B4A1B4B1B6A1C4926
:1029400019407B685B680B4313621723FB181B78E5
:10295000012B05D1144B144AD26918490A40DA6197
:102960007B681B680122134009D00F4A0E4B1B6B7A
:1029700003218B4319007B689B680B4313637B68BF
:102980001B682022134009D0074A074B1B6B1021FC
:102990008B4319007B68DB680B431363002318002B
:1029A000BD4606B080BDC046001002400070004029
:1029B000FFFCFFFFFFFFFEFF88130000FFFFFFEF9C
:1029C00080B584B000AF78607B68002B01D1012313
:1029D000A6E07B685B6A002B09D17B685A6882237A
:1029E0005B009A4209D07B680022DA6105E07B68CF
:1029F00000221A617B6800225A617B6800229A6279
:102A00007B685D229B5CDBB2002B07D17B685C227C
:102A1000002199547B681800FEF700F97B685D225D
:102A2000022199547B681B687A68126812684021F9
:102A30008A431A607B68DA68E023DB009A4202D995
:102A40000023FB6002E080235B01FB607B68DA68A7
:102A5000F0231B019A4208D07B68DA68E023DB0090
:102A60009A4202D07B6800229A627B681B687A686F
:102A700051688222520011407A68906884221202C2
:102A8000024011437A6812690220024011437A68B9
:102A900052690120024011437A68906980229200B5
:102AA000024011437A68D2693820024011437A68A3
:102AB000126A8020024011437A68906A8022920153
:102AC00002400A431A607B681B687A689269120C9C
:102AD000042111407A68526A1020024011437A683A
:102AE000526B0820024011437A68D068F02212012C
:102AF00002401143F8688022520102400A435A60A2
:102B00007B681B687A681268D26907490A40DA61F3
:102B10007B6800221A667B685D220121995400239C
:102B20001800BD4604B080BDFFF7FFFF80B58AB036
:102B300000AFF860B9607A601A00BB1C1A800123EC
:102B40007B622323FB1800221A70FB685C229B5CCB
:102B5000012B01D10223B6E1FB685C2201219954CB
:102B6000FEF7A6F90300FB611B23FB18FA685D2141
:102B7000525C1A70FB685B687B611223FB18BA1CFD
:102B800012881A801B23FB181B78012B12D07A693C
:102B900082235B009A4208D1FB689B68002B04D11A
:102BA0001B23FB181B78042B04D02323FB180222C1
:102BB0001A707DE1BB68002B06D07B68002B03D028
:102BC000BB1C1B88002B04D12323FB1801221A7085
:102BD0006EE1FB685D229B5CDBB2042B03D0FB68DB
:102BE0005D2205219954FB6800221A66FB687A6809
:102BF0001A64FB68BA1C462112885A52FB68BA1C38
:102C0000442112885A52FB68BA689A63FB68BA1C5E
:102C10001288DA87FB68BA1C12889A87FB68002240
:102C2000DA64FB6800221A65FB68DA68E023DB00DF
:102C30009A4208D9FB681B68FA6812685268A4496E
:102C40000A405A6008E0FB681B68FA68126852681C
:102C5000802149010A435A60FB681B681B684022B7
:102C60001340402B07D0FB681B68FA681268126893
:102C700040210A431A60FB68DA68E023DB009A42CD
:102C800000D87FE0FB685B68002B05D01223FB189F
:102C90001B88012B00D069E0FB681B68FA68926B07
:102CA0001288DA60FB689B6B9A1CFB689A63FB686E
:102CB000DB8F9BB2013B9AB2FB68DA8756E0FB6878
:102CC0001B689B6802221340022B1BD1FB68DB8F21
:102CD0009BB2002B16D07B6A012B13D1FB681B68BB
:102CE000FA68926B1288DA60FB689B6B9A1CFB682F
:102CF0009A63FB68DB8F9BB2013B9AB2FB68DA8771
:102D000000237B62FB681B689B6801221340012B38
:102D10001CD1FB6846229B5A9BB2002B16D0FB6845
:102D20001A6CFB681B68DB689BB21380FB681B6C2A
:102D30009A1CFB681A64FB6846229B5A9BB2013BB3
:102D400099B2FB684622995201237B62FEF7B0F8E4
:102D50000200FB69D21A3B6B9A4207D33B6B0133EB
:102D600004D02323FB1803221A70A1E0FB68DB8F39
:102D70009BB2002BA3D1FB6846229B5A9BB2002B2F
:102D80009DD186E0FB685B68002B05D01223FB1801
:102D90001B88012B00D071E0FB681B680C331A0004
:102DA000FB689B6B1B781370FB689B6B5A1CFB6862
:102DB0009A63FB68DB8F9BB2013B9AB2FB68DA87B0
:102DC0005CE0FB681B689B6802221340022B1DD14C
:102DD000FB68DB8F9BB2002B18D07B6A012B15D1CF
:102DE000FB681B680C331A00FB689B6B1B78137025
:102DF000FB689B6B5A1CFB689A63FB68DB8F9BB27A
:102E0000013B9AB2FB68DA8700237B62FB681B6890
:102E10009B6801221340012B1DD1FB6846229B5A5F
:102E20009BB2002B17D0FB681A6CFB681B680C3335
:102E30001B78DBB21370FB681B6C5A1CFB681A64AE
:102E4000FB6846229B5A9BB2013B99B2FB68462223
:102E5000995201237B62FEF72BF80200FB69D21A1C
:102E60003B6B9A4202D33B6B013302D13B6B002B8D
:102E700004D12323FB1803221A7019E0FB68DB8FAF
:102E80009BB2002B9DD1FB6846229B5A9BB2002B24
:102E900097D1FA69396BFB68180000F04BF9031EF3
:102EA00006D02323FB1801221A70FB6820221A6621
:102EB000FB685D2201219954FB685C220021995432
:102EC0002323FB181B781800BD460AB080BDC046FE
:102ED000FFEFFFFF80B588B000AFF860B9603B60DE
:102EE000FB1D1A70FDF7E4FF0200BB6A9A1A3B68EB
:102EF000D318FB61FDF7DCFF0300BB613A4B1B6895
:102F00005B011B0DFA6953437B6158E03B68013359
:102F100055D0FDF7CDFF0200BB69D21AFB699A427A
:102F200002D2FB69002B42D1FB681B68FA68126869
:102F30005268E0218A435A60FB685A6882235B002A
:102F40009A4213D1FB689A6880231B029A4205D0EB
:102F5000FB689A688023DB009A4207D1FB681B68F4
:102F6000FA681268126840218A431A60FB689A6AFC
:102F700080239B019A4210D1FB681B68FA68126893
:102F800012681A490A401A60FB681B68FA681268DE
:102F90001268802189010A431A60FB685D220121C1
:102FA0009954FB685C2200219954032317E07B6944
:102FB000002B01D10023FB617B69013B7B61FB6836
:102FC0001B689B68BA681A40BB68D31A5A425341BF
:102FD000DBB21A00FB1D1B789A4297D10023180020
:102FE000BD4608B080BDC04600000020FFDFFFFFE7
:102FF00080B58AB000AFF860B9607A603B60172393
:10300000FB1800221A70FDF753FF02003B6B9A1A5F
:103010003B68D3187B62FDF74BFF03003B62FB6804
:103020001B680C33FB61414B1A6813009B009B1813
:10303000DA00D31A1B0D7A6A5343BB6169E0BA68A0
:10304000C023DB009A420BD17B68002B08D1FB69BF
:103050001B78DAB21723FB181A701723FB181B789A
:103060003B68013355D0FDF723FF02003B6AD21ABB
:103070007B6A9A4202D27B6A002B42D1FB681B68B2
:10308000FA6812685268E0218A435A60FB685A68FD
:1030900082235B009A4213D1FB689A6880231B024B
:1030A0009A4205D0FB689A688023DB009A4207D1D8
:1030B000FB681B68FA681268126840218A431A602C
:1030C000FB689A6A80239B019A4210D1FB681B68B7
:1030D000FA681268126816490A401A60FB681B6891
:1030E000FA6812681268802189010A431A60FB6835
:1030F0005D2201219954FB685C220021995403232D
:1031000010E0BB69002B01D100237B62BB69013B4E
:10311000BB61FB681B689B68BA681A407B689A426F
:103120008DD100231800BD460AB080BD00000020EC
:10313000FFDFFFFF80B586B002AFF860B9607A604C
:10314000BA68C0235901F8687B6800931300002215
:10315000FFF74EFF031E07D0FB681B6E20221A43A9
:10316000FB681A66032327E0BA68F8687B68009357
:10317000130000228021FFF7ADFE031E07D0FB687D
:103180001B6E20221A43FB681A66032314E0BA68F8
:10319000C023D900F8687B68009313000022FFF772
:1031A00027FF031E07D0FB681B6E20221A43FB6813
:1031B0001A66032300E000231800BD4604B080BD5A
:1031C00080B582B000AF78607B68002B01D101230D
:1031D00044E07B689B6F002B07D17B687422002141
:1031E00099547B681800FDF76DFD7B6824229A676F
:1031F0007B681B687A681268126801218A431A602A
:103200007B68180000F030F80300012B01D1012386
:1032100024E07B685B6A002B03D07B68180000F019
:1032200061F97B681B687A68126852680D490A4028
:103230005A607B681B687A681268926808218A4322
:103240009A607B681B687A681268126801210A43D9
:103250001A607B68180000F0F1F903001800BD4601
:1032600002B080BDFFF7FFFF80B588B000AF786087
:103270001E23FB1800221A707B689A687B681B6902
:103280001A437B685B691A437B68DB6913437B6184
:103290007B681B687A68126812688A4911407A69EB
:1032A0000A431A607B681B687A681268526886490C
:1032B00011407A68D2680A435A607B689B697B61D7
:1032C0007B681B6A7A6913437B617B681B687A6839
:1032D000126892687D4911407A690A439A607B6856
:1032E0001B687B4A934225D17A4B1B6B0322134008
:1032F000012B0FD004D3022B11D0032B05D013E0E8
:103300001F23FB1800221A7022E01F23FB18022241
:103310001A701DE01F23FB1804221A7018E01F23E7
:10332000FB1808221A7013E01F23FB1810221A70D2
:10333000C0460DE07B681B68674A934204D11F2397
:10334000FB1800221A7003E01F23FB1810221A70CA
:103350007B68DA6980231B029A425FD11F23FB1826
:103360001B78022B0DD002DC002B05D015E0042BBE
:103370000AD0082B0DD010E0FFF73EFA0300BB6126
:1033800012E0564BBB610FE0FFF7CCF90300BB61C5
:103390000AE080231B02BB6106E00023BB611E2301
:1033A000FB1801221A70C046BB69002B00D17CE0DB
:1033B000BB695A007B685B685B08D2187B685B68F6
:1033C00019001000FCF7A8FE03009BB23B613B69AB
:1033D0000F2B1ED93B69424A93421AD83B699AB2D5
:1033E0000E23FB180F218A431A803B695B089BB2AE
:1033F0000722134099B20E23FB180E22BA18128826
:103400000A431A807B681B680E22BA181288DA6099
:103410004BE01E23FB1801221A7046E01F23FB1805
:103420001B78022B0DD002DC002B05D015E0042BFD
:103430000AD0082B0DD010E0FFF7DEF90300BB61C6
:1034400012E0264BBB610FE0FFF76CF90300BB6194
:103450000AE080231B02BB6106E00023BB611E2340
:10346000FB1801221A70C046BB69002B1DD07B6877
:103470005B685A08BB69D2187B685B68190010004A
:10348000FCF74AFE03009BB23B613B690F2B08D956
:103490003B69134A934204D87B681B683A69DA6037
:1034A00003E01E23FB1801221A707B6800225A6673
:1034B0007B6800229A661E23FB181B781800BD4605
:1034C00008B080BDF369FFFFFFCFFFFFFFF4FFFFF0
:1034D00000380140001002400044004000127A0011
:1034E000FFFF000080B582B000AF78607B685B6A48
:1034F000012213400AD07B681B687A681268526800
:10350000454911407A68926A0A435A607B685B6A4F
:10351000022213400AD07B681B687A6812685268DE
:103520003E4911407A68D26A0A435A607B685B6AF6
:10353000042213400AD07B681B687A6812685268BC
:10354000374911407A68126B0A435A607B685B6A9C
:10355000082213400AD07B681B687A681268526898
:10356000304911407A68526B0A435A607B685B6A43
:10357000102213400AD07B681B687A681268926830
:10358000294911407A68926B0A439A607B685B6AAA
:10359000202213400AD07B681B687A681268926800
:1035A000224911407A68D26B0A439A607B685B6A51
:1035B000402213401BD07B681B687A6812685268EF
:1035C0001B4911407A68126C0A435A607B681A6C76
:1035D00080235B039A420AD17B681B687A68126871
:1035E0005268144911407A68526C0A435A607B68E9
:1035F0005B6A802213400AD07B681B687A68126875
:1036000052680D4911407A68926C0A435A60C0466C
:10361000BD4602B080BDC046FFFFFDFFFFFFFEFFBD
:10362000FFFFFBFFFF7FFFFFFFEFFFFFFFDFFFFF5E
:10363000FFFFEFFFFFFF9FFFFFFFF7FF80B586B0A3
:1036400002AF78607B68802200219950FDF730FC42
:103650000300FB607B681B681B6808221340082B73
:103660000DD1FA68802399037868184B00931300F2
:10367000002200F02DF8031E01D0032322E07B6816
:103680001B681B6804221340042B0DD1FA688023A9
:10369000D90378680D4B00931300002200F018F84E
:1036A000031E01D003230DE07B6820229A677B680C
:1036B0002022DA677B6800221A667B687422002168
:1036C000995400231800BD4604B080BDFFFFFF01E0
:1036D00080B594B000AFF860B9603B60FB1D1A7014
:1036E0009BE0BB6D013300D197E0FDF7E1FB0200E9
:1036F0003B68D21ABB6D9A4202D8BB6D002B39D100
:10370000EFF31083BB62BB6A7B640123FB62FB6A3D
:1037100083F31088FB681B68FA68126812684949CD
:103720000A401A607B6C3B633B6B83F31088EFF3BA
:1037300010837B637B6B3B640123BB63BB6B83F3B5
:103740001088FB681B68FA681268926801218A4336
:103750009A603B6CFB63FB6B83F31088FB68202251
:103760009A67FB682022DA67FB687422002199546B
:10377000032363E0FB681B681B68042213404CD0E2
:10378000FB681B68DA6980231B011A4080231B0138
:103790009A4242D1FB681B68802212011A62EFF341
:1037A00010833B613B69FB6401237B617B6983F38D
:1037B0001088FB681B68FA681268126821490A4081
:1037C0001A60FB6CBB61BB6983F31088EFF3108355
:1037D000FB61FB69BB6401233B623B6A83F3108896
:1037E000FB681B68FA681268926801218A439A6034
:1037F000BB6C7B627B6A83F31088FB6820229A672C
:10380000FB682022DA67FB68802220219950FB6840
:10381000742200219954032310E0FB681B68DB69C4
:10382000BA681A40BB68D31A5A425341DBB21A0035
:10383000FB1D1B789A4200D153E700231800BD46B8
:1038400014B080BD5FFEFFFF80B500AF064A074B96
:103850001100180003F0E8FF03001A00044B1A706F
:10386000C046BD4680BDC046380200200C00002086
:103870003C02002080B500AF00231800BD4680BD8B
:1038800080B582B000AF0200FB1D1A70FB1D1B78D3
:10389000180000F027FA03001800BD4602B080BDF2
:1038A00080B582B000AF0200FB1D1A70FB1D1B78B3
:1038B000180000F035FB03001800BD4602B080BDC3
:1038C00090B585B000AFB9607A603B600F23FB18FC
:1038D000021C1A703C687A68B9680F23FB181878C4
:1038E000230000F033FB03001800BD4605B090BD77
:1038F00090B585B000AFB9607A603B600F23FB18CC
:10390000021C1A703C687A68B9680F23FB18187893
:10391000230000F087FB03001800BD4605B090BDF2
:1039200080B582B000AF3A60FB1D021C1A70BB1D4F
:103930000A1C1A703A68BB1D1978FB1D1B78180009
:1039400000F0F0FB03001800BD4602B080BD00008F
:1039500080B582B000AF7860FDF7AAFA0200044B90
:103960001A60044B7A681A60C046BD4602B080BD3A
:103970009C060020A006002080B500AFFDF798FA55
:103980000200064B1B68D21A054B1B689A429B41EA
:103990005B42DBB21800BD4680BDC0469C060020DD
:1039A000A006002080B586B002AF0200FB1D1A7091
:1039B0000F23FA18F91D0648322300930123FFF75D
:1039C000B5F80F23FB181B781800BD4604B080BD66
:1039D000E400002090B585B000AF78603960002326
:1039E000FB600AE07A68FB68D418FF20FFF7DAFF73
:1039F00003002370FB680133FB60FA683B689A425E
:103A0000F0D3C046BD4605B090BD80B584B000AFD0
:103A1000786039600023FB6009E07A68FB68D3189E
:103A20001B781800FFF7BEFFFB680133FB60FA68E4
:103A30003B689A42F1D3C046BD4604B080BD90B504
:103A400087B000AF7860FDF733FA03007B617B68D5
:103A50003B610F23FC18FF20FFF7A4FF0300237036
:103A60000F23FB181B78FF2B07D0FDF721FA02006C
:103A70007B69D21A3B699A42EBD30F23FB181B7860
:103A8000FF3B5A425341DBB21800BD4607B090BD20
:103A900080B500AF054B012202211800FDF75AFC4A
:103AA000FF20FFF77FFFC046BD4680BD00040048F1
:103AB00080B500AF0B4B002202211800FDF74AFC35
:103AC000FF20FFF76FFFFA235B001800FFF7B7FF37
:103AD000031E01D0012302E0FFF7DAFF00231800E4
:103AE000BD4680BD0004004890B585B000AF786049
:103AF0003960C820FFF72CFF0F23FC18FF20FFF7C9
:103B000051FF030023700F23FB181B78FF2B03D1F9
:103B1000FFF732FF031EEFD10F23FB181B78FE2B9C
:103B200001D000230CE03A687B6811001800FFF711
:103B300051FFFF20FFF736FFFF20FFF733FF012380
:103B40001800BD4605B090BD90B585B000AF786057
:103B50000A00FB1C1A70FA235B001800FFF76FFFC6
:103B6000031E01D1002326E0FB1C1B781800FFF781
:103B700019FFFB1C1B78FD2B1CD080239A007B684F
:103B800011001800FFF741FFFF20FFF70BFFFF2098
:103B9000FFF708FF0F23FC18FF20FFF703FF0300C8
:103BA00023700F23FB181B781F221340052B01D015
:103BB000002300E001231800BD4605B090BD90B57C
:103BC00085B000AF02003960FB1D1A70FB1D1B7829
:103BD0005BB2002B16DAFB1DFA1D12787F210A401A
:103BE0001A700E23FC1800213720FFF7E8FF0300AE
:103BF00023700E23FB181B78012B03D90E23FB180F
:103C00001B786BE0FB1D1B780C2B07D0FFF740FFE8
:103C1000FFF74EFF031E01D1FF235FE0FB1D1B7862
:103C200040221343DBB21800FFF7BCFE3B681B0EBB
:103C3000DBB21800FFF7B6FE3B681B0CDBB21800C6
:103C4000FFF7B0FE3B681B0ADBB21800FFF7AAFEC5
:103C50003B68DBB21800FFF7A5FE0F23FB1801221B
:103C60001A70FB1D1B78002B03D10F23FB18952224
:103C70001A70FB1D1B78082B03D10F23FB1887221A
:103C80001A700F23FB181B781800FFF78BFEFB1D23
:103C90001B780C2B02D1FF20FFF784FE0F23FB18AB
:103CA0000A221A700E23FC18FF20FFF77BFE030088
:103CB00023700E23FB181B785BB2002B0BDA0F234B
:103CC000FB180F22BA181278013A1A700F23FB184A
:103CD0001B78002BE6D10E23FB181B781800BD467D
:103CE00005B090BD90B585B000AF0200FB1D1A7005
:103CF000FB1D1B78002B01D0012307E1854B1B78AE
:103D0000DBB21A000223134003D0824B1B78DBB2D4
:103D1000FCE0814B1B68804A1268126838218A4394
:103D200030210A431A600F23FB180A221A7009E097
:103D3000FF20FFF737FE0F23FB181A780F23FB181D
:103D4000013A1A700F23FB181B78002BF0D10D23BA
:103D5000FB1800221A7000210020FFF730FF03003B
:103D6000012B00D0ADE0FA239B001800FFF7F0FD17
:103D7000D5235B0019000820FFF721FF0300012B6A
:103D800000D068E00F23FB1800221A7011E00F2307
:103D9000FB181C78FF20FFF705FE03001A0008231C
:103DA000FB181A550F23FB181A780F23FB18013242
:103DB0001A700F23FB181B78032BE8D90823FB1874
:103DC0009B78012B00D07CE00823FB18DB78AA2B22
:103DD00000D076E0C046FFF7CFFD031E07D080235A
:103DE000DB051900A920FFF7EAFE031EF3D1FFF758
:103DF000C3FD031E65D000213A20FFF7E0FE031E3D
:103E00005FD10F23FB1800221A7011E00F23FB185B
:103E10001C78FF20FFF7C6FD03001A000823FB18DB
:103E20001A550F23FB181A780F23FB1801321A704A
:103E30000F23FB181B78032BE8D90823FB181B78EA
:103E40001A004023134001D00C2200E004220D236D
:103E5000FB181A7035E00021A920FFF7B0FE03001F
:103E6000012B08D80D23FB1802221A700E23FB1811
:103E7000A9221A7007E00D23FB1801221A700E23E5
:103E8000FB1801221A70C046FFF776FD031E08D00A
:103E90000E23FB181B7800211800FFF790FE031E6D
:103EA000F2D1FFF769FD031E07D080239B001900A4
:103EB0001020FFF784FE031E03D00D23FB18002201
:103EC0001A70164B0D22BA1812781A70FFF7E0FD1F
:103ED0000D23FB181B78002B12D00F4B1B680E4ACA
:103EE0001268126838218A4310210A431A60094B6C
:103EF0001B78DBB201229343DAB2064B1A7002E060
:103F0000044B01221A70034B1B78DBB21800BD462C
:103F100005B090BD20000020E4000020A800002093
:103F200080B582B000AF0200FB1D1A70FB1D1B782C
:103F3000002B01D0012302E0034B1B78DBB21800F9
:103F4000BD4602B080BDC0462000002080B584B0D0
:103F500000AFB9607A603B600F23FB18021C1A7037
:103F60000F23FB181B78002B02D13B68002B01D1DB
:103F700004234FE0294B1B78DBB21A0001231340C6
:103F800001D0032346E0264B1B781A000823134078
:103F900002D17B685B027B603B68012B12D17B689E
:103FA00019001120FFF70BFE031E2DD180239A006C
:103FB000BB6811001800FFF797FD031E24D00023F3
:103FC0003B6021E07B6819001220FFF7F8FD031E1B
:103FD0001AD180239A00BB6811001800FFF784FDF6
:103FE000031E0CD0BB688022920094466344BB60E1
:103FF0003B68013B3B603B68002BEAD100E0C046D8
:1040000000210C20FFF7DBFDFFF742FD3B685A1E45
:104010009341DBB21800BD4604B080BD20000020F3
:10402000A800002080B584B000AFB9607A603B6022
:104030000F23FB18021C1A700F23FB181B78002B90
:1040400002D13B68002B01D1042363E0334B1B7882
:10405000DBB21A000123134001D003235AE02F4B97
:104060001B78DBB21A000423134001D0022351E075
:104070002B4B1B781A000823134002D17B685B028C
:104080007B603B68012B10D17B6819001820FFF77B
:1040900096FD031E38D1BB68FE211800FFF754FDC2
:1040A000031E31D000233B602EE01D4B1B781A000D
:1040B0000623134004D03B6819009720FFF77FFDCB
:1040C0007B6819001920FFF77AFD031E1CD1BB681D
:1040D000FC211800FFF738FD031E0CD0BB688022BE
:1040E000920094466344BB603B68013B3B603B6885
:1040F000002BECD100E0C046FD210020FFF724FD9D
:10410000031E01D101233B60FFF7C2FC3B685A1E2E
:104110009341DBB21800BD4604B080BD20000020F2
:10412000A800002080B58CB000AF3A60FB1D021CD7
:104130001A70BB1D0A1C1A70FB1D1B78002B01D0C6
:10414000042385E1C44B1B78DBB21A000123134022
:1041500001D003237CE12F23FB1801221A70BB1D21
:104160001B78012B14D002DC002B07D059E1032B64
:1041700000D17AE0042B00D102E152E1FFF798FC74
:10418000031E00D152E12F23FB1800221A704DE1CB
:1041900000210920FFF713FD031E00D048E10C2386
:1041A000FB1810211800FFF79FFC031E00D13FE110
:1041B0000C23FB181B789B09DBB2012B18D10C23B5
:1041C000FB185B7A1A000C23FB181B7A1B02D3180E
:1041D00019000C23FB18DB791A04FC239B03134002
:1041E000CB1801333B623B6A9A023B681A6037E0A6
:1041F0000C23FB185B790F221340DAB20C23FB1857
:104200009B7ADB09DBB2D318DAB20C23FB185B7A9A
:104210005B00DBB206210B40DBB2D318DAB22E23EF
:10422000FB1802321A700C23FB181B7A9B09DBB2B5
:104230001A000C23FB18DB799B00D2180C23FB1807
:104240009B799902C0231B010B40D31801333B62B9
:104250002E23FB181B78093B3A6A9A403B681A6088
:104260002F23FB1800221A70E2E07C4B1B781A0007
:104270000423134036D000218D20FFF7A0FC031E3D
:1042800000D0D7E0FF20FFF78DFB0C23FB18102197
:104290001800FFF729FC031E00D1CBE02E23FB18EA
:1042A00030221A7009E0FF20FFF77CFB2E23FB1859
:1042B0001A782E23FB18013A1A702E23FB181B784C
:1042C000002BF0D10C23FB189B7A1B09DBB21A00E0
:1042D000102393401A003B681A602F23FB1800221A
:1042E0001A70A7E000210920FFF769FC031E00D027
:1042F000A0E00C23FB1810211800FFF7F5FB031EAC
:1043000000D197E0554B1B781A000223134018D0B8
:104310000C23FB189B7A5B007E2213400C22BA18F8
:10432000D27AD209D2B29B185A1C0C23FB185B7BA1
:104330009B09DBB2013B9A4013001A003B681A60EC
:1043400019E00C23FB189B7A9B109BB21A001F23C9
:10435000134001330C22BA18D27AD20018210A4035
:104360000C217918C97A4909C9B25218013253434C
:104370001A003B681A602F23FB1800221A7059E0BC
:10438000364B1B781A000623134055D00C23FA181D
:10439000FB1D1B780B211800FFF7C4FE031E4DD137
:1043A0000C23FB181B789B09DBB2002B06D10C23D6
:1043B000FB189B7A1A004023134041D03B68FB61F5
:1043C000FB691B68BB62FB695B687B62234B1B78E4
:1043D0001A000823134005D1BB6A5B02BB627B6AEB
:1043E0005B027B62BB6A19002020FFF7E8FB031E1B
:1043F00028D17B6A19002120FFF7E1FB031E21D1A0
:1044000000212620FFF7DBFB031E1BD1144B1800F5
:10441000FFF715FB031E15D02F23FB1800221A707F
:1044200010E02F23FB1804221A700CE0C0460AE0AB
:10443000C04608E0C04606E0C04604E0C04602E0D0
:10444000C04600E0C046FFF723FB2F23FB181B7874
:104450001800BD460CB080BD20000020A800002040
:104460003075000090B585B000AF0200FB1D1A70DA
:10447000FB1D1B780B4A9B00D31804331B685B6839
:10448000FA1D127807498A18127A0F217C18100039
:104490009847030023700F23FB181B781800BD46B4
:1044A00005B090BDCC00002090B585B000AF0200F3
:1044B000FB1D1A700F23FB1800221A70FB1D1B78BE
:1044C000114AD35C002B17D1FB1D1B780E4A01212A
:1044D000D154FB1D1B780C4A9B00D31804331B6876
:1044E0001B68FA1D127808498A18127A0F217C1865
:1044F00010009847030023700F23FB181B78180047
:10450000BD4605B090BDC046CC000020B0B586B019
:1045100000AFB9607A603B600F23FB18021C1A7071
:104520000F23FB181B780D4A9B00D31804331B681C
:104530009D680F23FB181B78084AD318187A172395
:10454000FC183B687A68B968A847030023701723F2
:10455000FB181B781800BD4606B0B0BDCC0000208B
:10456000B0B586B000AFB9607A603B600F23FB182E
:10457000021C1A700F23FB181B780D4A9B00D318DE
:1045800004331B68DD680F23FB181B78084AD31817
:10459000187A1723FC183B687A68B968A8470300A3
:1045A00023701723FB181B781800BD4606B0B0BD5A
:1045B000CC000020B0B584B000AF3A60FB1D021CF7
:1045C0001A70BB1D0A1C1A70FB1D1B780D4A9B003C
:1045D000D31804331B681B69FA1D127809498A181D
:1045E000107A0F22BC183D68BA1D11782A0098472E
:1045F000030023700F23FB181B781800BD4604B07E
:10460000B0BDC046CC00002080B586B000AFF860D9
:10461000B9607A60FB687B61BB683B6107E07B69DE
:104620005A1C7A613A69511C396112781A707B6898
:104630005A1E7A60002BF2D1C046BD4606B080BD3E
:1046400080B586B000AFF860B9607A60FB687B61C6
:1046500005E07B695A1C7A61BA68D2B21A707B682D
:104660005A1E7A60002BF4D1C046BD4606B080BD0C
:1046700080B588B000AFF860B9607A60FB68FB6114
:10468000BB68BB6100237B61C0467B685A1E7A60B1
:10469000002B0DD0FB695A1CFA611B781900BB690D
:1046A0005A1CBA611B78CB1A7B617B69002BECD05A
:1046B0007B691800BD4608B080BD80B582B000AFF0
:1046C0007860396002E07B6801337B607B681B782F
:1046D000002B05D07B681B781A003B689A42F2D108
:1046E0007B681B781800BD4602B080BD80B584B0E1
:1046F00000AF786039600023BB60BB68FB6038E0C6
:104700002F49FA6813005B009B189B005B58002B35
:104710002AD02B49FA6813005B009B189B005A585B
:10472000796880239B00CB589A421FD12449FA68AC
:1047300013005B009B189B00CB1804331A68796840
:1047400082239B00CB589A4210D11D49FA6813006E
:104750005B009B189B00CB1808331A887B681949AB
:104760005B5A9A4202D107E00123BB60FB68013328
:10477000FB60FB68012BC3D9FB68022B09D1BB6826
:10478000002B02D13B68022B01D1002314E012233D
:1047900012E03B68002B0CD10949FA6813005B005A
:1047A0009B189B00CB180A331A8880235B009A421F
:1047B00001D1102300E000231800BD4604B080BDE5
:1047C000B40000200602000080B582B000AF0023D4
:1047D0007B6002E07B6801337B607B68012B08D83B
:1047E00008497A6813005B009B189B005B58002BFC
:1047F000F0D17B68023B5A1E9341DBB21800BD46E4
:1048000002B080BDB400002080B584B000AF7860F5
:1048100039600023FB602CE05549FA6813005B0007
:104820009B189B005A58796880239B00CB589A426A
:104830001CD14F49FA6813005B009B189B00CB18F2
:1048400004331A68796882239B00CB589A420DD1B1
:104850004749FA6813005B009B189B00CB1808338C
:104860001A887B6843495B5A9A4206D0FB68013339
:10487000FB60FB68012BCFD900E0C046FB68022B30
:1048800045D10023FB6002E0FB680133FB60FB685D
:10489000012B08D83649FA6813005B009B189B006F
:1048A0005B58002BF0D1FB68022B01D100235AE0AA
:1048B0007A6880239B00D0582D49FA6813005B006A
:1048C0009B189B0058507A6882239B00D158284837
:1048D000FA6813005B009B189B00C318043319602F
:1048E0007B68244A985A2249FA6813005B009B1897
:1048F0009B00CB180833021C1A801D49FA6813006C
:104900005B009B189B00CB180A3300221A803B687F
:10491000002B0CD01649FA6813005B009B189B0013
:10492000CB180A331B88002B01D000231BE03B6807
:10493000002B0BD10E49FA6813005B009B189B00FB
:10494000CB180A331B8801339AB201E080235A0046
:104950000748F9680B005B005B189B00C3180A331B
:104960001A80FB6801331800BD4604B080BDC04604
:10497000B40000200602000080B584B000AF78606B
:104980007B68013B7B607B68012B40D80E23F918C4
:1049900024487A6813005B009B189B00C3180A33F5
:1049A0001B880B800E23FB181A8880235B009A4219
:1049B00003D10E23FB1800221A800E23FB181B883C
:1049C000002B06D00E23FB181A880E23FB18013A81
:1049D0001A8014497A6813005B009B189B00CB185F
:1049E0000A330E22BA1812881A800E23FB181B886D
:1049F000002B07D10B497A6813005B009B189B00C2
:104A000000225A500D23FB1800221A7003E00D23D8
:104A1000FB1802221A700D23FB181B781800BD46E4
:104A200004B080BDB400002080B584B000AF7860D1
:104A30000023FB6014E00E49FA6813005B009B182A
:104A40009B005A587B689A4207D10949FA681300BB
:104A50005B009B189B0000225A50FB680133FB60EF
:104A6000FB68012BE7D9C046BD4604B080BDC046F7
:104A7000B400002080B586B000AF78600F23FB182B
:104A800000221A707A6881239B00D35C002B3ED0F1
:104A90007A688B239B00D3587B617B681F4A985CA4
:104AA00079687A690123FFF75BFD031E04D00F23A9
:104AB000FB1801221A702AE07A6881239B000021EA
:104AC000D1547A6888239B00D3587A69D21A7968BE
:104AD00086239B00CB589A4219D27B68104A9B5C74
:104AE0003B6111E07A6886239B00D3587A69D3181A
:104AF0007B617B68094A985C79687A690123FFF7D2
:104B00002FFD3B69013B3B613B69012BEAD80F2339
:104B1000FB181B781800BD4606B080BD01020000DE
:104B20000302000090B585B000AF786039600F23B4
:104B3000FB1800221A707A688B239B00D2583B68BE
:104B40009A4222D00F23FC187B681800FFF792FFCF
:104B5000030023700F23FB181B78002B15D17B68F3
:104B60000D4A985C79683A680123FFF7CFFC031E71
:104B700006D001235B423B600F23FB1801221A7011
:104B80007A688B239B003968D1500F23FB181B7860
:104B90001800BD4605B090BD0102000090B585B07B
:104BA00000AF78600F23FC187B681800FFF762FFE6
:104BB000030023700F23FB181B78002B00D0B4E0F8
:104BC0007A6880239B00D35C032B00D09FE07B6836
:104BD000594A9B5C012B00D099E0786880239B00A8
:104BE0001A000021FFF72CFD7A68FF235B00552196
:104BF000D1547B68514AAA2199547B6852221A7079
:104C00007B6852225A707B6861229A707B684122CD
:104C1000DA707A68F2235B007221D1547A68E62355
:104C2000FF337221D1547A68F3235B004121D154C0
:104C30007A68E823FF336121D1547A6884239B008A
:104C4000D358D9B27A68F4235B00D1547A688423AC
:104C50009B00D3589BB21B0A9BB2D9B27A68EA2355
:104C6000FF33D1547A6884239B00D3581B0CD9B2EC
:104C70007A68F5235B00D1547A6884239B00D3586B
:104C80001B0ED9B27A68EC23FF33D1547A688323A0
:104C90009B00D358D9B27A68F6235B00D1547A6866
:104CA00083239B00D3589BB21B0A9BB2D9B27A686C
:104CB000EE23FF33D1547A6883239B00D3581B0C17
:104CC000D9B27A68F7235B00D1547A6883239B00BA
:104CD000D3581B0ED9B27A68F023FF33D1547A68C7
:104CE00087239B00D358591C7A688B239B00D15093
:104CF0007B68134A985C79687A688B239B00D2584A
:104D00000123FFF72DFC7B680B4A002199547B6837
:104D10000B4A9B5C002200211800FFF74BFC031E8E
:104D200003D00F23FB1801221A700F23FB181B78E6
:104D30001800BD4605B090BD05020000FF0100004F
:104D40000102000080B582B000AF786039603B6836
:104D5000023B3B607A6885239B00D3589A1E3B68D0
:104D60009A4201D800230AE07B68074A9B5C1A003C
:104D70003B685A4379688A239B00CB58D3181800A4
:104D8000BD4602B080BDC0460202000080B586B0BC
:104D900000AF786039603B68012B06D97A688523BB
:104DA0009B00D2583B689A4202D801237B61A7E05E
:104DB00001235B427B617A6880239B00D35C022BDA
:104DC00046D0032B67D0012B00D08FE03B683B61BE
:104DD0003B695B083A69D3183B617A6888239B007A
:104DE000D2583B695B0AD2187B6811001800FFF7A4
:104DF00099FE031E00D07CE03B695A1C3A61DB053A
:104E0000DB0D7A68D35CFB607A6888239B00D258FC
:104E10003B695B0AD2187B6811001800FFF782FE1D
:104E2000031E68D13B69DB05DB0D7A68D35C1B028E
:104E30001A00FB681343FB603B680122134002D059
:104E4000FB681B0902E0FB681B051B0D7B6157E03B
:104E50007A6888239B00D2583B681B0AD2187B686B
:104E600011001800FFF75EFE031E46D13B685A0092
:104E7000FF235B0013407A68D318BB60BB68013323
:104E80001B781B021AB2BB681B781BB213431BB200
:104E90009BB27B6134E07A6888239B00D2583B68E0
:104EA000DB09D2187B6811001800FFF73BFE031ED8
:104EB00025D13B689A00FE235B0013407A68D31823
:104EC000BB60BB6803331B781A06BB6802331B78D0
:104ED0001B041343BA680132127812021343BA68F2
:104EE000127813431B011B097B6109E001237B61DD
:104EF00006E0C04604E0C04602E0C04600E0C0460E
:104F00007B691800BD4606B080BD90B589B000AF82
:104F1000F860B9607A60BB68012B06D9FA6885230E
:104F20009B00D258BB689A4204D81F23FB18022268
:104F30001A7013E1FA6880239B00D35C022B00D126
:104F400080E0032B00D1ACE0012B00D0FAE0BB687D
:104F5000BB61BB695B08BA69D318BB61FA68882377
:104F60009B00D258BB695B0AD2181F23FC18FB6850
:104F700011001800FFF7D6FD030023701F23FB1854
:104F80001B78002B00D0E2E0BB695A1CBA61DB053C
:104F9000DB0DFA68D3187B61BB68012213400DD08A
:104FA0007B691B785BB20F2213405AB27B68DBB27D
:104FB0001B015BB213435BB2DBB201E07B68DBB287
:104FC0007A691370FA6881239B000121D154FA6831
:104FD00088239B00D258BB695B0AD2181F23FC1898
:104FE000FB6811001800FFF79DFD030023701F23CD
:104FF000FB181B78002B00D0ABE0BB69DB05DB0D99
:10500000FA68D3187B61BB680122134003D07B6828
:105010001B09DBB20EE07B691B785BB20F22934366
:105020005AB27B681B0A5BB20F210B405BB2134381
:105030005BB2DBB27A691370FA6881239B000121AD
:10504000D1548BE0FA6888239B00D258BB681B0AB6
:10505000D2181F23FC18FB6811001800FFF762FD2F
:10506000030023701F23FB181B78002B73D1BB6830
:105070005A00FF235B001340FA68D3187B617B68FA
:10508000DAB27B691A707B6901337A6892B2120ACC
:1050900092B2D2B21A70FA6881239B000121D154D6
:1050A0005CE0FA6888239B00D258BB68DB09D21801
:1050B0001F23FC18FB6811001800FFF733FD0300E5
:1050C00023701F23FB181B78002B46D1BB689A0066
:1050D000FE235B001340FA68D3187B617B690333BE
:1050E0001B781A067B6902331B781B0413437A6909
:1050F00001321278120213437A69127813431B0F9C
:105100001B077A6813437B607B68DAB27B691A708D
:105110007B6901337A6892B2120A92B2D2B21A70E3
:105120007B6902337A68120CD2B21A707B6903333E
:105130007A68120ED2B21A70FA6881239B0001219C
:10514000D1540BE01F23FB1802221A7006E0C04660
:1051500004E0C04602E0C04600E0C0461F23FB1842
:105160001B781800BD4609B090BD000090B585B011
:1051700000AF786039603B68012B06D97A688523D7
:105180009B00D2583B689A4204D80F23FB18022296
:105190001A7053E00F23FB1800221A7043E03A689C
:1051A0007B6811001800FFF7F1FD0300BB60BB68CE
:1051B000002B40D0BB68012B04D10F23FB18022227
:1051C0001A703BE0BB68013304D10F23FB180122A6
:1051D0001A7033E00F23FC1839687B68002218002E
:1051E000FFF793FE030023700F23FB181B78002B9F
:1051F00023D17A6884239B00D358013311D07A6875
:1052000084239B00D358591C7A6884239B00D15077
:105210007B680E4A9B5C01221343D9B27B680B4A20
:105220009954BB683B607A6885239B00D2583B68E1
:105230009A42B4D802E0C04600E0C0460F23FB18F3
:105240001B781800BD4605B090BDC04605020000A1
:1052500090B587B000AF786039603B68002B11D102
:105260007A6883239B00D3583B613B69002B06D0AF
:105270007A6885239B00D2583B699A421FD8012344
:105280003B611CE03A687B6811001800FFF77EFD67
:105290000300BB60BB68012B01D8012387E0BB681A
:1052A000013301D1BB6882E07A6885239B00D25824
:1052B000BB689A4201D9BB6879E03B683B613B69B6
:1052C0007B617B6901337B617A6885239B00D258BF
:1052D0007B699A4207D802237B617A693B699A42CB
:1052E00001D9002363E07A697B6811001800FFF799
:1052F0004DFD0300BB60BB68002B0DD0BB680133C4
:1053000002D0BB68012B01D1BB6850E07A693B69D0
:105310009A42D6D100234AE0C0460F23FC18264A01
:1053200079697B681800FFF7F0FD030023700F23F5
:10533000FB181B78002B0CD13B68002B09D00F23E6
:10534000FC187A6939687B681800FFF7DEFD0300F6
:1053500023700F23FB181B78002B1DD17A68832341
:105360009B007969D1507A6884239B00D35801331C
:105370001CD07A6884239B00D358591E7A688423F2
:105380009B00D1507B680D4A9B5C01221343D9B22C
:105390007B680A4A995409E00F23FB181B78012BFC
:1053A00002D101235B4200E001237B617B6918008D
:1053B000BD4607B090BDC046FFFFFF0F05020000CD
:1053C00080B586B000AF786039607A6889239B0029
:1053D000D35804333B613B68580A7A6880239B00AA
:1053E000D358134A9B5C1900FAF796FE03007B61C1
:1053F0003B691A1D3A611B68FB60FB68002B01D1F9
:10540000002310E07A69FB689A4207D37A69FB6847
:10541000D31A7B613B6904333B61E9E7C0463B69D2
:105420001A687B69D3181800BD4606B080BDC04617
:105430000202000080B586B000AF786039603B683A
:1054400099B27B68514A99527A6882239B00D3585B
:105450007B617B69012B09D07A6880239B00D2583D
:1054600085239B00D2587B699A4201D8022388E0A9
:105470007B69002B10D17A6880239B00D25880234F
:105480009B00D35C032B07D17A6880239B00D25802
:1054900089239B00D3587B617B69002B15D17A68E7
:1054A00080239B00D25882239B00D35A1A003B686A
:1054B0009A4201D8022364E07A6880239B00D25884
:1054C00089239B00D3583B613AE07A6880239B0094
:1054D000D3582F4A9B5C1B01FB6022E07A68802333
:1054E0009B00D3587A6911001800FFF74FFC0300A6
:1054F0007B617B69013301D1012342E07B69012B90
:1055000009D97A6880239B00D25885239B00D25802
:105510007B699A4201D8022333E03A68FB68D31AC8
:105520003B603A68FB689A42D8D27A6880239B0035
:10553000D3587A6911001800FFF704FC03003B619F
:105540007A6883239B007969D1503B69002B01D194
:10555000022316E03B681A093B69D1187A68842354
:105560009B00D1507A6880239B00D35819003B6878
:105570000F2213405B01C9187A6885239B00D15024
:1055800000231800BD4606B080BDC04606020000DC
:105590000202000090B587B000AF786039607B6888
:1055A000884A9B5A0133FB60FB681B041B0C05D027
:1055B0007A6884239B00D358002B01D10423FCE09C
:1055C000FB680F22134000D0E3E07A6884239B003D
:1055D000D358591C7A6884239B00D1507A6883235E
:1055E0009B00D358002B0DD17A6880239B00D258A2
:1055F00082239B00D35A1A00FB689A4200D9C8E064
:105600000423DAE0FB681B097968802292008A583B
:105610006D49525C013A134000D0BAE07A688023A9
:105620009B00D0587A6883239B00D3581900FFF75A
:10563000ADFB03007B617B69012B01D80223BCE039
:105640007B69013301D10123B7E07A6880239B0095
:10565000D25885239B00D2587B699A4200D985E0B5
:105660003B68002B01D10423A7E07A6880239B00CC
:10567000D0587A6883239B00D3581900FFF7E8FDC0
:1056800003007B617B69002B01D1072395E07B69D7
:10569000012B01D1022390E07B69013301D1012369
:1056A0008BE07A6880239B00D3581800FFF7E2F95B
:1056B000031E01D0012380E07A6880239B00D35829
:1056C000180080239B001A000021FEF7B9FF7A68BA
:1056D00080239B00D4587A6880239B00D3587A6932
:1056E00011001800FFF72EFB02008B239B00E250F5
:1056F00000233B6120E07A6880239B00D2588123FD
:105700009B000121D1547A6880239B00D358180054
:10571000FFF7B0F9031E01D001234EE07A68802321
:105720009B00D3588B2292009A58511C8B229200D6
:1057300099503B6901333B617A6880239B00D358C1
:10574000214A9B5C1A003B699A42D4D87A6880232C
:105750009B00D258796880239B00C9588B239B00FB
:10576000C9583B69C91A8B239B00D1507A6883239F
:105770009B007969D1507A6880239B00D3587A695D
:1057800011001800FFF7DEFA01007A6884239B00FD
:10579000D150FB6899B27B680A4A99527A68802393
:1057A0009B00D3581900FB680F2213405B01C918F6
:1057B0007A6885239B00D15000231800BD4607B0AE
:1057C00090BDC046060200000202000090B585B000
:1057D00000AF786039600F23FC187B680021180047
:1057E000FFF728FE030023700F23FB181B78002B04
:1057F0003DD10023BB607A6880239B00D0587A6833
:1058000084239B00D3580F22BC181900FFF78AF994
:10581000030023700F23FB181B78002B26D17A6816
:1058200085239B00D3581B78E52B06D07A68852307
:105830009B00D3581B78002B07D1BB680133BB609A
:10584000BA683B689A4202D111E00023BB600F2383
:10585000FC187B6801211800FFF79CFE03002370F1
:105860000F23FB181B78002BC5D000E0C0460F2388
:10587000FB181B78042B03D10F23FB1807221A7087
:105880000F23FB181B781800BD4605B090BD80B5EE
:1058900084B000AF786039603B681B331B781B0213
:1058A0001AB23B681A331B781BB213431BB29BB26C
:1058B000FB607A6880239B00D35C032B0FD13B688D
:1058C00015331B781B021AB23B6814331B781BB2CA
:1058D00013431BB29BB21B04FA681343FB60FB68C3
:1058E0001800BD4604B080BD80B582B000AF7860BE
:1058F00039607B681A333A68D2B21A707B681B33FE
:105900003A6892B2120A92B2D2B21A707B68143319
:105910003A68120CD2B21A707B6815333A68120CCE
:1059200092B2120A92B2D2B21A70C046BD4602B00A
:1059300080BD90B587B000AF78601723FC187B68F6
:1059400000211800FFF776FD030023701723FB18D2
:105950001B78002B03D01723FB181B784EE07A68C6
:1059600080239B00D0587A6884239B00D358172249
:10597000BC181900FFF7D6F8030023701723FB1893
:105980001B78002B34D17A6885239B00D3583B6168
:105990000F23FB183A6912781A700F23FB181B7833
:1059A000002B04D11723FB1804221A7023E03B6953
:1059B0000B331B781A00082313400AD17A68862318
:1059C0009B00D1583B690B221800FEF751FE031EC5
:1059D00010D01723FC187B6800211800FFF7DAFDB0
:1059E000030023701723FB181B78002BB7D002E0AD
:1059F000C04600E0C0461723FB181B781800BD46C0
:105A000007B090BD90B585B000AF78600F23FC184B
:105A10007B6801211800FFF7D9FE030023700F23D4
:105A2000FB181B78002B30D17A6880239B00D0585C
:105A30007A6884239B00D3580F22BC181900FFF703
:105A400071F8030023700F23FB181B78002B1CD167
:105A50007A6885239B00D358202200211800FEF786
:105A6000EFFD7A6885239B00D0587A6886239B00D7
:105A7000D3580B221900FEF7C7FD7A6880239B00DC
:105A8000D25881239B000121D1540F23FB181B788E
:105A90001800BD4605B090BD80B588B000AF7860F5
:105AA00039603B681B68FB6002E0FB680133FB6008
:105AB000FB681B782F2BF8D0FB681B785C2BF4D08D
:105AC0007A6886239B00D358BB60BB680B222021D9
:105AD0001800FEF7B5FD1F23FB1800221A700023E3
:105AE0003B613B697B610823BB617B695A1C7A611E
:105AF000FA68D2181E23FB1812781A701E23FB189E
:105B00001B78202B00D884E01E23FB181B782F2B3A
:105B100000D17EE01E23FB181B785C2B00D178E0BF
:105B20001E23FB181B782E2B03D03A69BB699A42BF
:105B300015D3BB69082B04D11E23FB181B782E2B11
:105B400001D00623B0E008233B610B23BB611F2378
:105B5000FB181F22BA18127892001A7058E01E2300
:105B6000FB181B785BB2002B11DA1F23FB181F22D6
:105B7000BA18127803210A431A701E23FB181B78E7
:105B8000803B1A001E23FB1849498A5C1A701E23A9
:105B9000FB181A78474B11001800FEF78EFD031E04
:105BA00001D0062380E01E23FB181B78402B0DD963
:105BB0001E23FB181B785A2B08D81F23FB181F2203
:105BC000BA18127802210A431A7018E01E23FB1833
:105BD0001B78602B13D91E23FB181B787A2B0ED849
:105BE0001F23FB181F22BA18127801210A431A70CA
:105BF0001E23FB181E22BA181278203A1A703B692D
:105C00005A1C3A61BA68D3181E22BA1812781A7050
:105C10006BE7FA687B69D2183B681A601E23FB1891
:105C20001B78202B01D8042200E000221E23FB1841
:105C30001A703B69002B01D1062335E0BB681B7845
:105C4000E52B02D1BB6805221A70BB69082B06D16F
:105C50001F23FB181F22BA18127892001A701F23F4
:105C6000FB181B7803221340012B07D11E23FB18BE
:105C70001E22BA18127810210A431A701F23FB182B
:105C80001B780C221340042B07D11E23FB181E2265
:105C9000BA18127808210A431A70BB680B331E2207
:105CA000BA1812781A7000231800BD4608B080BDDB
:105CB00034820008D881000890B585B000AF7860C4
:105CC00039603B681B782F2B03D03B681B785C2B1B
:105CD00002D13B6801333B607A6882239B0000213C
:105CE000D1503B681B781F2B0ED80F23FC187B6804
:105CF00000211800FFF79EFB030023707A688523BC
:105D00009B000021D1505EE00F23FC183A007B6815
:105D100011001800FFF7C0FE030023700F23FB18CB
:105D20001B78002B4AD10F23FC187B681800FFF763
:105D300000FE030023707A6886239B00D2580E234E
:105D4000FB18D27A1A700F23FB181B78002B0FD088
:105D50000F23FB181B78042B32D10E23FB181B7862
:105D6000042213402CD10F23FB1805221A7027E0C0
:105D70000E23FB181B780422134023D17A68852355
:105D80009B00D358BB60BB680B331B781A001023F1
:105D9000134004D10F23FB1805221A7013E07A6810
:105DA00080239B00D358BA6811001800FFF76FFDDD
:105DB00001007A6882239B00D150A5E7C04602E02B
:105DC000C04600E0C0460F23FB181B781800BD46F4
:105DD00005B090BD80B586B000AF786001235B420E
:105DE0003B617B681B68002B31D07B681B687B6143
:105DF00002E07B6901337B617B691B78202B03D92F
:105E00007B691B783A2BF4D17B691B783A2B1CD128
:105E10007B681B68FB60FB685A1CFA601B78303B90
:105E2000BB60BB68092B0ED8FA687B699A420AD11D
:105E3000BB68002B07D1BB683B617B6901337B6189
:105E40007B687A691A603B6902E000233B613B6929
:105E50001800BD4606B080BD80B582B000AF786046
:105E600039607A6881239B000021D1547A688B23A2
:105E70009B0001214942D1503A687B68110018000B
:105E8000FEF750FE031E01D003234BE07B68FF3377
:105E9000FF3301331B781B021AB27968FF235B00C2
:105EA000CB5C1BB213431BB2204A934201D00223A6
:105EB00038E07B68363303331B781A067B68363349
:105EC00002331B781B0413437A683632013212788E
:105ED000120213437A683621525C13431B021B0AD9
:105EE000134A934201D100231CE07B6852330333F1
:105EF0001B781A067B68523302331B781B0413434A
:105F00007A68523201321278120213437A685221AF
:105F1000525C13431B021B0A054A934201D1002322
:105F200000E001231800BD4602B080BD55AAFFFF66
:105F30004641540090B597B000AFF860B960FB1DC2
:105F40001A70FB6800221A60BB681800FFF742FF56
:105F50000300FB63FB6B002B01DA0B23F7E2D14B51
:105F6000FA6B9200D358BB63BB6B002B01D10C239F
:105F7000EDE2FB68BA6B1A60BA6B80239B00D35CBE
:105F8000002B1DD0BB6BC84A9B5C3722BC18180085
:105F9000FEF768FA030023703723FB181B780122F1
:105FA00013400DD1FB1D1B78002B07D03723FB18A6
:105FB0001B780422134001D00A23C8E20023C6E262
:105FC000BA6B80239B000021D154FB6BD9B2BB6B11
:105FD000B54A9954BB6BB44A9B5C3722BC18180075
:105FE000FEF762FA030023703723FB181B780122A7
:105FF000134001D00323AAE2FB1D1B78002B07D01E
:106000003723FB181B780422134001D00A239EE299
:1060100000233B655723FC183A6DBB6B1100180039
:10602000FFF71AFF030023705723FB181B78012B7F
:1060300056D100233B6427E0BA6B3B6C1B01BF3396
:10604000FF33D3183B633B6B04331B78002B12D018
:106050003B6B0B331B781A063B6B0A331B781B0414
:1060600013433A6B09321278120213433A6B083227
:106070001278134300E000231422BA18396C890007
:106080008B503B6C01333B643B6C032BD4D9002316
:106090003B643B6C002B02D03B6C013B3B64142304
:1060A000FB183A6C9200D3583B653B6D002B08D02F
:1060B0003A6DBB6B11001800FFF7CEFE03001A000B
:1060C00000E002225723FB181A705723FB181B7895
:1060D000002B05D03B6C01333B643B6C032BDED9BA
:1060E0005723FB181B78032B01D101232FE25723E1
:1060F000FB181B78002B01D00D2328E2BB6B1B7B08
:106100001B021AB2BB6BDB7A1BB213431AB2802399
:106110009B009A4201D00D2319E2BB6BDB7D1B0271
:106120001AB2BB6B9B7D1BB213431BB29BB2FB64C9
:10613000FB6C002B12D1BB6B27229B5C1A06BB6B3E
:1061400026215B5C1B041343BA6B2521525C1202AF
:106150001343BA6B2421525C1343FB64BA6B86234E
:106160009B00F96CD150BB6B197CBB6B4F4A9954A7
:10617000BB6B4E4A9B5C012B06D0BB6B4B4A9B5CB6
:10618000022B01D00D23E2E1BB6B484A9B5C1A0055
:10619000FB6C5343FB64BB6B597BBB6B444A995408
:1061A000BB6B434A9B5C002B09D0BB6B404A9B5C9A
:1061B0001900BB6B3E4A9B5C013B0B4001D00D2399
:1061C000C5E1BB6B9B7C1B021AB2BB6B5B7C1BB239
:1061D00013431BB299B2BA6B82239B00D152BA6BA4
:1061E00082239B00D35A0F2213409BB2002B01D075
:1061F0000D23ACE1BB6B1B7D1B021AB2BB6BDB7CBE
:106200001BB213431BB29BB2BB64BB6C002B12D1FD
:10621000BB6B23229B5C1A06BB6B22215B5C1B04BD
:106220001343BA6B2121525C12021343BA6B202133
:10623000525C1343BB64BB6BDB7B1B021AB2BB6BB0
:106240009B7B1BB213431AB22E23FB181A802E23FA
:10625000FB181B88002B01D10D2378E12E23FB189E
:106260001A88FB6CD318B96B822292008A5A1209E1
:1062700092B29B18BB62BA6CBB6A9A4201D20D23E0
:1062800065E1BA6CBB6AD01ABB6B094A9B5C19000A
:10629000F9F742FF03007B627B6A002B0AD10D23D2
:1062A00055E1C046AC0000200102000003020000DE
:1062B000020200005723FB1801221A707B6AA64ACB
:1062C000934203D95723FB1802221A707B6AA34A10
:1062D000934203D95723FB1803221A707B6A991C37
:1062E000BA6B85239B00D150BA6B87239B00396D15
:1062F000D1502E23FB181A883B6DD118BA6B882316
:106300009B00D1503A6DBB6AD118BA6B8A239B00AF
:10631000D1505723FB181B78032B25D1BA6B82234E
:106320009B00D35A002B01D00D2310E1BB6B2F2211
:106330009B5C1A06BB6B2E215B5C1B041343BA6B80
:106340002D21525C12021343BA6B2C21525C134371
:106350001900BA6B89239B00D150BA6B85239B002F
:10636000D3589B007B642CE0BA6B82239B00D35AEA
:10637000002B01D10D23EAE0BA6B88239B00D25891
:10638000FB6CD118BA6B89239B00D1505723FB18A3
:106390001B78022B05D1BA6B85239B00D3585B0079
:1063A0000EE0BA6B85239B00D25813005B009B184C
:1063B0005A08B96B85239B00CB5801210B40D31899
:1063C0007B64BA6B86239B00D2587B6C64498C46F5
:1063D00063445B0A9A4201D20D23B8E0BA6B84236E
:1063E0009B0001214942D150BA6B84239B00D158B4
:1063F000BA6B83239B00D150BB6B5A4A80219954BE
:106400005723FB181B78032B00D089E0BB6B31228C
:106410009B5C1B021AB2BB6B30215B5C1BB213434B
:106420001BB2012B00D07BE03B6D5A1CBB6B1100F3
:106430001800FEF777FB031E72D1BB6B494A00219F
:106440009954BB6B464A9B5C1B021AB2B96BFF2383
:106450005B00CB5C1BB213431BB2434A93425FD138
:10646000BB6BDB781A06BB6B9B781B041343BA6BC0
:10647000527812021343BA6B127813433B4A934289
:106480004ED1BA6BE823FF33D35C1A06B96BF32302
:106490005B00CB5C1B041343B96BE622FF328A5CC2
:1064A00012021343B96BF22252008A5C1343304A42
:1064B000934235D1BA6BEC23FF33D35C1A06B96B28
:1064C000F5235B00CB5C1B041343B96BEA22FF325C
:1064D0008A5C12021343B96BF42252008A5C1343A4
:1064E0001900BA6B84239B00D150BA6BF023FF33A1
:1064F000D35C1A06B96BF7235B00CB5C1B04134318
:10650000B96BEE22FF328A5C12021343B96BF6229A
:1065100052008A5C13431900BA6B83239B00D1504D
:10652000BA6B5723F91880239B000978D154114B7B
:106530001B8801339AB20F4B1A800E4B1988BB6B24
:106540000D4A9952BB6B1800FEF76EFA0023180033
:10655000BD4617B090BDC046F50F0000F5FF000026
:10656000FF0100000502000055AAFFFF52526141E1
:1065700072724161B00000200602000080B584B054
:1065800000AF78607B68FB60FB68002B28D0FA685E
:1065900080239B00D358002B22D0FA6880239B00D5
:1065A000D25880239B00D35C002B19D0FA6880233B
:1065B0009B00D3580E4A9A5AF96881239B00CB5A04
:1065C0009A420DD1FA6880239B00D358094A9B5CFC
:1065D0001800FDF747FF03001A000123134001D004
:1065E000092300E000231800BD4604B080BDC0466A
:1065F000060200000102000090B589B000AFF8600B
:10660000B960FB1D1A70BB683B611023FB181800B2
:10661000FFF7E0FB0300FB61FB69002B01DA0B23B2
:1066200035E01D4BFA699200D358BB61BB69002B62
:1066300008D0BB691800FEF7F7F9BA6980239B0000
:106640000021D154FB68002B04D0FA6880239B0002
:106650000021D154F968104BFA699200D150FB68BF
:10666000002B03D0FB1D1B78012B01D000230EE073
:106670001723FC180823F9180C23FB180022180014
:10668000FFF758FC030023701723FB181B78180032
:10669000BD4609B090BDC046AC00002090B5EA4CA4
:1066A000A54400AFF860B960E84B942189008C469E
:1066B000BC4463441A70FB68002B01D10923C2E279
:1066C000FA6880239B000021D150E04B9422920075
:1066D0009446BC446344DD4A942189008C46BC4402
:1066E000624412781F210A401A70D84B94229200FB
:1066F0009446BC4463441B7801229343DAB2D44BE2
:10670000FC180823F9182023FB18802080008446F9
:1067100063441800FFF70EFC03002370CC4BFB18FA
:106720001B78002B00D08BE2CA4B94229200BA183F
:10673000D21886239B0014217918D150BA68C44B13
:10674000FC182023FB1811001800FFF7B5FA03000E
:106750002370C04B94229200BA18D21885239B0054
:10676000D35892229200BA181360B94BFB181B78C9
:10677000002B21D192239B00FB181B68002B04D116
:10678000B34BFB1806221A7016E0B04B942292000D
:106790009446BC4463441B78012293435A1E9341A0
:1067A000DBB21A00AA4BFC182023FB1811001800BA
:1067B000FDF79CFF03002370A44B942292009446A3
:1067C000BC4463441B781C22134000D144E1A04B1D
:1067D000FB181B78002B31D09D4BFB181B78042B2A
:1067E0000FD1FDF7F1FF031E07D02023FB1818007F
:1067F000FFF708F903001A0000E01222944BFB187F
:106800001A70924B942292009446BC4463448F4A7F
:10681000942189008C46BC446244127808210A43C2
:106820001A708C4B94229200BA18D21885239B00C0
:10683000D35892229200BA1813601CE092239B0056
:10684000FB181B680B331B781A001123134004D06C
:106850007F4BFB1807221A700DE07C4B94229200AC
:106860009446BC4463441B780422134003D0784B05
:10687000FB1808221A70764BFB181B78002B00D0EF
:1068800016E1724B942292009446BC4463441B78F8
:106890000822134000D10BE1FCF7ECFF030091222A
:1068A0009200BA18136092239B00FB181B680E33EA
:1068B00091229200BA181268D2B21A7092239B00E9
:1068C000FB181B680F3391229200BA18126892B21B
:1068D000120A92B2D2B21A7092239B00FB181B6864
:1068E000103391229200BA181268120CD2B21A70A8
:1068F00092239B00FB181B68113391229200BA1857
:106900001268120ED2B21A7092239B00FB181B68F9
:106910000B3300221A7092239B00FB181B681C3358
:1069200000221A7092239B00FB181B681D33002263
:106930001A7092239B00FB181B681E3300221A70EA
:1069400092239B00FB181B681F3300221A70414BD7
:1069500094229200BA18D21880239B00D358922216
:106960009200BA18126811001800FEF790FF030099
:1069700090229200BA18136092239B00FB181B68A8
:1069800000211800FEF7B0FF324B94229200BA1893
:10699000D21880239B00D25881239B000121D1541F
:1069A00090239B00FB181B68002B00D180E0294B33
:1069B00094229200BA18D21880239B00D2588B23BD
:1069C0009B00D35891229200BA181360214B942255
:1069D0009200BA18D21880239B00D3581C4ABC18C6
:1069E00090229200BA18126811001800FEF7BEFB40
:1069F00003002370164BFB181B78002B58D1154B46
:106A000094229200BA18D21880239B00D258902367
:106A10009B00FB181B68591E83239B00D1500D4B14
:106A200094229200BA18D21880239B00D358084AA7
:106A3000BC1891229200BA18126811001800FEF7D3
:106A400071F80300237033E0ACFDFFFFB7FDFFFFDB
:106A50004F020000D0FDFFFF7E4BFB181B78002B80
:106A600026D192239B00FB181B680B331B781A005E
:106A70001023134004D0774BFB1804221A7017E040
:106A8000754B942292009446BC4463441B780222C6
:106A900013400DD092239B00FB181B680B331B780F
:106AA0001A000123134003D06A4BFB1807221A7007
:106AB000684BFB181B78002B52D1674B9422920035
:106AC0009446BC4463441B78082213400FD0624BA9
:106AD000942292009446BC4463445F4A9421890006
:106AE0008C46BC446244127820210A431A705B4BE6
:106AF00094229200BA18D21880239B00D2588B237C
:106B00009B00D158FA6887239B00D150FA688823EC
:106B10009B009221890079180968D1504E4B94222C
:106B200092009446BC4463441B78012293435A1E4E
:106B30009341DBB21A002023FB1811001800FDF767
:106B400063FE0100FA688A239B00D150FA688A2309
:106B50009B00D358002B03D13E4BFB1802221A7026
:106B60003C4BFB181B78002B6AD1FB683A4A9421F6
:106B700089008C46BC446244394912785A54FB68F7
:106B8000384A00219954354B94229200BA18D218F1
:106B900080239B00D35892229200BA1812681100E9
:106BA0001800FEF774FE0100FA6884239B00D150A0
:106BB00092239B00FB181B681F331B781A06922335
:106BC0009B00FB181B681E331B781B041343922287
:106BD0009200BA1812681D321278120213439222E0
:106BE0009200BA1812681C32127813431900FA681E
:106BF00083239B00D150FA6882239B000021D1504F
:106C0000FA6886239B000021D150FA6889239B00F3
:106C10000021D150114B94229200BA18D21880232F
:106C20009B00D158FA6880239B00D150FA688023DA
:106C30009B00D3580A4A995AFA6881239B00D15283
:106C4000044BFB181B781800BD4695239B009D4400
:106C500090BDC0464F020000B7FDFFFFD0FDFFFF13
:106C6000060200000702000090B58BB000AFF8608C
:106C7000B9607A603B60BB68BB613B6800221A6008
:106C80001723FC18FB681800FFF778FC030023703B
:106C90001723FB181B78002B03D01723FB181B7836
:106CA000C9E1FB68D14A9B5C002B03D0FB68CF4A4B
:106CB0009B5CC0E1FB68CE4A9B5C1A000223134038
:106CC00001D10723B7E1FA6882239B00D2587B6881
:106CD000D218F96882239B00CB589A4200D37FE1F7
:106CE00000237B607CE1FA6882239B00D358DB059C
:106CF000DB0D00D036E1FA6882239B00D3585B0A93
:106D0000DAB2F96880239B00CB58BA495B5C013B3F
:106D1000D9B21623FB180A401A701623FB181B78E9
:106D2000002B5DD1FA6882239B00D358002B12D12F
:106D3000FA6884239B00D3587B627B6A002B29D19D
:106D4000FA6880239B00D35800211800FEF780FAD0
:106D500003007B621EE0FA6889239B00D358002B56
:106D60000BD0FA6882239B00D258FB6811001800F0
:106D7000FEF726FB03007B620CE0FA6880239B0091
:106D8000D058FA6885239B00D3581900FEF760FAA3
:106D900003007B627B6A002B00D12FE17B6A012B11
:106DA00005D1FB68914A02219954022343E17B6A91
:106DB000013305D1FB688D4A0121995401233AE141
:106DC000FA6885239B00796AD150FA6884239B0076
:106DD000D358002B04D1FA6884239B00796AD150E0
:106DE000FB68834A9B5C1A00402313401ED0FA685C
:106DF00080239B00D358804A985CF968FA68862300
:106E00009B00D2580123FDF7ABFB031E05D0FB68A6
:106E1000764A0121995401230DE1FB68744A9B5C79
:106E200040229343D9B2FB68714A9954FA6880238F
:106E30009B00D058FA6885239B00D3581900FDF7B2
:106E400081FF03003B613B69002B05D1FB68674A6A
:106E5000022199540223EEE01623FB181B783A69AD
:106E6000D3183B617B685B0AFB61FB69002B50D048
:106E70001623FB181A78FB69D318F9688022920050
:106E80008A585C49525C93420BD9FA6880239B0074
:106E9000D358584A9B5C1A001623FB181B78D31A48
:106EA000FB61FA6880239B00D358534A985CFB69C6
:106EB0003A69B969FDF754FB031E05D0FB684B4ADC
:106EC000012199540123B6E0FA6886239B00D25829
:106ED0003B69D21AFB699A4217D2F868FA6886238E
:106EE0009B00D2583B69D31A5B02BA69D118802340
:106EF0009B001A00FDF788FBFB683D4A9B5C402223
:106F00009343D9B2FB683A4A9954FB695B023B62EE
:106F10004EE0FA6886239B00D2583B699A421CD007
:106F2000FA6882239B00D258F96883239B00CB58D0
:106F30009A4212D2FA6880239B00D3582E4A985C5A
:106F4000F9683A690123FDF7E1FA031E05D0FB68F1
:106F5000264A0121995401236DE0FA6886239B009B
:106F60003969D150FA6882239B00D358DB05DB0DC9
:106F700080229200D31A3B623A6A7B689A4201D916
:106F80007B683B62FA6882239B00D358DB05DB0DEC
:106F9000FA68D3183A6AB9691800FDF735FBFB683F
:106FA000134A9B5C40221343D9B2FB68104A9954A0
:106FB000BA693B6AD318BB61FA6882239B00D25836
:106FC0003B6AD118FA6882239B00D1503B681A684B
:106FD0003B6AD2183B681A607A683B6AD31A7B60B6
:106FE0007B68002B00D07EE609E0C0460702000067
:106FF000060200000202000001020000C046FA681A
:1070000082239B00D258F96883239B00CB589A4275
:1070100007D9FA6882239B00D158FA6883239B0022
:10702000D150FB68064A9B5C20221343D9B2FB680F
:10703000034A995400231800BD460BB090BDC046CA
:107040000602000090B587B000AF78601723FC18E7
:107050007B681800FFF792FA030023701723FB18D0
:107060001B78002B00D0BAE07B68604A9B5C1A005A
:107070002023134000D1B2E07B685C4A9B5C1A007D
:10708000402313401AD07A6880239B00D358584A73
:10709000985C79687A6886239B00D2580123FDF7B3
:1070A0005FFA031E01D001239CE07B684F4A9B5C82
:1070B00040229343D9B27B684C4A99547A68802322
:1070C0009B00D0587A6887239B00D3581722BC189E
:1070D0001900FDF727FD030023701723FB181B7809
:1070E000002B7CD17A6888239B00D3583B613B6995
:1070F0000B333A690B32127820210A43D2B21A704C
:107100003B691C337968832292008A58D2B21A7084
:107110003B691D337968832292008A5892B2120A21
:1071200092B2D2B21A703B691E3379688322920000
:107130008A58120CD2B21A703B691F3379688322C5
:1071400092008A58120ED2B21A707A6884239B0079
:10715000D2583B6911001800FEF7C6FBFCF78AFB0A
:107160000300FB603B691633FA68D2B21A703B69C0
:107170001733FA6892B2120A92B2D2B21A703B690D
:107180001833FA68120CD2B21A703B691933FA68D4
:10719000120ED2B21A703B69123300221A703B6988
:1071A000133300221A707B68104A9B5C20229343A1
:1071B000D9B27B680D4A99547A6880239B00D258D3
:1071C00081239B000121D1547A6880239B00D358EE
:1071D0001722BC181800FDF7E1FC030023701723E9
:1071E000FB181B781800BD4607B090BD06020000D2
:1071F0000102000090B585B000AF78600F23FC1845
:107200007B681800FFF71EFF030023700F23FB1895
:107210001B78002B21D10F23FC187B681800FFF787
:10722000ADF9030023700F23FB181B78002B14D13A
:107230007A688A239B00D3580F22BC181800FDF7E8
:107240009BFB030023700F23FB181B78002B04D13A
:107250007A6880239B000021D1500F23FB181B78F4
:107260001800BD4605B090BD80B584B000AF786011
:107270000A00FB1C1A70FB1C1B780A2B04D17B68CC
:107280000D211800FFF7F0FF7B685B68FB60FB686F
:10729000002B26DBFB685A1CFA607A68D318FA1CAC
:1072A00012781A73FB683C2B12DD7B6818687B68C8
:1072B0000C331900FA680823FB18FFF7D5FCBA68ED
:1072C000FB689A4201D1002301E001235B42FB608D
:1072D0007B68FA685A607B689B685A1C7B689A6076
:1072E00000E0C046BD4604B080BD00000EB490B5BD
:1072F000A2B000AF78600823FB187A681A600823F0
:10730000FB1800225A600823FB185A680823FB1850
:107310009A609823FB18BB669423FB181B685A1CC1
:10732000942179180A607322BA181B78137073239A
:10733000FB181B78002B00D1EDE17323FB181B78A1
:10734000252B09D07323FB181A780823FB1811008A
:107350001800FFF789FFDDE18723FB1800221A7070
:107360000023BB679423FB181B685A1C94217918CF
:107370000A607322BA181B7813707323FB181B78EA
:10738000302B0FD18723FB1801221A709423FB188E
:107390001B685A1C942179180A607322BA181B784A
:1073A00013702BE07323FB181B782D2B26D187231A
:1073B000FB1802221A709423FB181B685A1C942194
:1073C00079180A607322BA181B78137016E0BA6F26
:1073D00013009B009B185B001A007323FB181B789B
:1073E000D318303BBB679423FB181B685A1C9421AD
:1073F00079180A607322BA181B7813707323FB186C
:107400001B782F2B04D97323FB181B78392BDED95B
:107410007323FB181B786C2B04D07323FB181B7889
:107420004C2B12D18723FB188722BA18127804211B
:107430000A431A709423FB181B685A1C942179186C
:107440000A607322BA181B7813707323FB181B7819
:10745000002B00D161E17223FB187322BA18127855
:107460001A707223FB181B78602B0BD97223FB1840
:107470001B787A2B06D87223FB187222BA1812785E
:10748000203A1A707223FB181B78423B162B65D8E2
:107490009A00B84BD3181B689F46BB6E1A1DBA667C
:1074A0001B68FB660023FB6702E0FB6F0133FB6791
:1074B000FA6EFB6FD3181B78002BF6D18723FB18CD
:1074C0001B780222134017D105E00823FB18202166
:1074D0001800FFF7C9FEFB6F5A1CFA67BA6F934298
:1074E000F3D309E0FB6E5A1CFA661A780823FB18DE
:1074F00011001800FFF7B8FEFB6E1B78002BF1D1CE
:1075000005E00823FB1820211800FFF7ADFEFB6FF4
:107510005A1CFA67BA6F9342F3D3FBE0BB6E1A1D95
:10752000BA661B68DAB20823FB1811001800FFF7CF
:107530009BFEEFE08623FB1802221A7018E08623D8
:10754000FB1808221A7013E08623FB180A221A700F
:107550000EE08623FB1810221A7009E07323FB1833
:107560001A780823FB1811001800FFF77DFED1E000
:107570008723FB181B780422134004D0BB6E1A1D0E
:10758000BA661B680DE07223FB181B78442B04D1EC
:10759000BB6E1A1DBA661B6803E0BB6E1A1DBA6685
:1075A0001B687B677223FB181B78442B0DD17B6F04
:1075B000002B0ADA7B6F5B427B678723FB188722ED
:1075C000BA18127808210A431A7000238022BA18C8
:1075D00013608623FB181A787B6F11001800F8F7E8
:1075E00021FE0B001A007223FB181A708623FB1869
:1075F0001B781900786FF8F78FFD03007B67722303
:10760000FB181B78092B0ED97323FB181B78782BDA
:1076100001D1272300E007237222BA1872217918BA
:1076200009785B1813708023FB181B685A1C802193
:1076300079180A607222BA1812783032D1B2542204
:10764000BA18D1547B6F002B04D08023FB181B6821
:107650000F2BBED98723FB181B78082213400AD0B2
:107660008023FB181B685A1C802179180A60542259
:10767000BA182D21D1548023FB181B68FB67872380
:10768000FB181B780122134001D0302200E0202299
:107690007223FB181A7008E07223FB181A7808236B
:1076A000FB1811001800FFF7DFFD8723FB181B787C
:1076B0000222134005D1FB6F5A1CFA67BA6F93423E
:1076C000EAD38023FB181B68013B8022BA181360A1
:1076D0005423FA188023FB181B68D3181A78082340
:1076E000FB1811001800FFF7BFFD8023FB181B6873
:1076F000002BE6D108E07223FB181A780823FB1848
:1077000011001800FFF7B0FDFB6F5A1CFA67BA6F43
:107710009342F0D300E6C04600E0C0460823FB18C1
:107720005B68002B1DDB0823FB1818680823FB1877
:107730005B681C006423FA180823FB180C3319003B
:1077400013002200FFF790FA031E0AD10823FB184A
:107750005B681A007B6E9A4203D10823FB189B6872
:1077600001E001235B421800BD4622B090BC08BC7A
:1077700003B01847B482000880B586B000AFF86047
:10778000B960FB1D1A701723FB1801221A7016230B
:10779000FB1800221A70234B5B7ADBB2012B39D81D
:1077A000204B5B7ADBB21A001E4B002199541D4B13
:1077B0005B7ADBB21B4A9B00D3180433FA681A6069
:1077C000184B5B7ADBB21A00164B9B18FA1D127825
:1077D0001A72144B5B7ADBB25A1CD1B2114A517245
:1077E0001622BA1813701623FB181B783033DAB23E
:1077F000BB681A70BB6801333A221A70BB68023347
:107800002F221A70BB68033300221A701723FB184B
:1078100000221A701723FB181B781800BD4606B00B
:1078200080BDC046CC00002080B582B000AF78603B
:10783000396039687B6800221800FFF79DFF03005C
:107840001800BD4602B080BD0D4885460D480E4962
:107850000E4A002302E0D458C4500433C4188C42AA
:10786000F9D30B4A0B4C002301E013600432A2420F
:10787000FBD3F9F7BDFA00F017F8F8F753FEFEE76F
:107880000020002000000020880000204C83000819
:1078900088000020A8060020FEE70000014B1868C1
:1078A0007047C0462400002070B500260C4D0D4CDA
:1078B000641BA410A64209D1002600F043FC0A4D27
:1078C0000A4C641BA410A64205D170BDB300EB584E
:1078D00098470136EEE7B300EB5898470136F2E7D8
:1078E0004483000844830008448300084883000858
:1078F000002310B59A4200D110BDCC5CC4540133B2
:10790000F8E703008218934200D1704719700133E1
:10791000F9E700000EB410B59DB002A9029008610D
:107920000B48822488604861012040421FABC88117
:10793000084804CBA400006801938C8100F06EF825
:107940000023029A13701DB010BC08BC03B0184786
:10795000FFFFFF7F24000020F0B58E6885B0070090
:107960000C00039201939E4239D890238A89DB0050
:107970001A4234D00325096923685B1A02936369AC
:1079800002985D43EB0F5D19019B6D1001331B18CD
:10799000AB4200D91D00530532D52900380000F054
:1079A00031FB061E09D10C233B6040230120A28934
:1079B00040421343A38105B0F0BD029A2169FFF74D
:1079C00097FFA389144A1A4080231343A381029B83
:1079D0002661F61826606561019EED1AA560019B7F
:1079E000B34200D21E0032000399206800F0ADFAC5
:1079F000A36800209B1BA36023689E192660DAE71A
:107A00002A00380000F05CFB061EE0D12169380036
:107A100000F0AEFAC7E7C0467FFBFFFFF0B59FB0AE
:107A2000029005938B890F0016001B0611D50B6978
:107A3000002B0ED1402100F0E5FA386038610028B3
:107A400005D10C23029A013813601FB0F0BD40230A
:107A50007B61002306AD6B6120336B761033AB7610
:107A600034002378002B47D1A31B04930DD0A31B14
:107A7000320039000298FFF76FFF431C00D1B5E0D8
:107A80006A69049B944663446B612378002B00D1A0
:107A9000ACE00122002352426A6002A9543252181B
:107AA00001342B60EB60AB601370AB65584E052260
:107AB0002178300000F03EFA621C002820D12968AD
:107AC000CB0604D5532302AE20309B1918700B0748
:107AD00004D553232B2002AE9B19187023782A2B30
:107AE00016D000200A21099B2278303A092A55D95C
:107AF000002815D0099313E0252BB5D00134B0E749
:107B00000123801B8340296814000B432B60CDE7C1
:107B1000059B181D1B680590002B39DB0993140089
:107B200023782E2B0BD16378621C2A2B3ED1059B28
:107B300002341A1D1B680592002B34DB0793354E67
:107B400021780322300000F0F5F9002806D0402308
:107B5000801B83402A68013413432B60217806225E
:107B60002D48661C297600F0E5F9002846D02B4BFD
:107B7000002B2FD12968059B0722C90528D59B1802
:107B80009343083305936B69039A9B186B6167E70E
:107B90005B42EB6002230B432B60C0E74B43013495
:107BA0009B180120A0E701235B42C7E700231400D4
:107BB0000A201A006B6021783039092903D9002B7B
:107BC000BDD00792BBE74243013452180123F2E7CC
:107BD0000733D5E705AB00933A00114B2900029813
:107BE00000E000BF0390039B0133CCD1BB890B980D
:107BF0005B0600D429E70120404226E705AB00934D
:107C00003A00074B2900029800F07AF8EAE7C046EC
:107C100010830008168300081A8300080000000083
:107C200059790008F7B5150001938A680B6900902F
:107C30000C00934200DA130022002B6043321278CA
:107C4000002A01D001332B6023689B0602D52B68E4
:107C500002332B60062723681F4027D023004333BD
:107C60001B785A1E93412268920630D42200019953
:107C700043320098089EB047431C25D00623206855
:107C80002A68E16803400025042B03D18D1AEB43D9
:107C9000DB171D40A3682269934201DD9B1AED1892
:107CA0000027BD4220D1002010E00137E3682A6898
:107CB0009B1A9F42D2DA22000123193201990098BF
:107CC000089EB047431CF0D101204042FEBD302049
:107CD000E1184331087021005A1C45310978A21877
:107CE000433202331170C1E7220001231A32019995
:107CF0000098089EB047431CE6D00137D1E700004A
:107D0000F0B58BB006920A004332079305900492B7
:107D10000A7E0C00109B6E2A00D18FE017D8632AD0
:107D20002CD008D8002A00D199E0582A54D0260037
:107D30004236327029E0642A01D0692AF7D12168DD
:107D40001A68080623D5111D1960156825E0732AE5
:107D500000D188E008D86F2A29D0702AE7D12022E4
:107D600009680A43226003E0752A20D0782ADED110
:107D700022007821453211706C4A30E00E001A68FA
:107D80004236111D196013683370012379E04906EA
:107D9000D9D5111D19600023D55E002D03DA2D23DE
:107DA000049A6D421370624B0A2703932FE02068F8
:107DB0001968050603D5081D18600D6805E0400622
:107DC000F9D50D68081D1860ADB2594B082703930B
:107DD0006F2A18D00A2716E045310A70544A0392D8
:107DE0001A682168101D18601568080622D5CB078F
:107DF00002D52023194321601027002D03D1202311
:107E000022689A4322602300002243331A70636879
:107E1000A360002B5CDB0422216891432160002DCC
:107E200058D1049E002B64D02600039B42361B7859
:107E300033705EE04806DAD5ADB2D8E709681A6853
:107E4000080605D5111D1960136862691A6006E0FD
:107E50004906F7D5111D19601368A28A1A800023FC
:107E6000049E236154E01A68111D196016680021F0
:107E70006268300000F05EF8002801D0801B60606E
:107E8000636823610023049A137041E02369320080
:107E900006990598079DA847431C43D023680025F1
:107EA0009B070FD4099BE06898423DDA18003BE03D
:107EB00022000123193206990598079EB047431CFA
:107EC00030D00135E368099A9B1A9D42F0DBE9E75F
:107ED000002DA9D0049E28003900F8F7A3F9039BD0
:107EE000013E5B5C280033703900F8F715F9051E78
:107EF000F1D1082F09D12368DB0706D56368226911
:107F0000934202DC3023013E3370049B9B1B2361B0
:107F1000079B09AA00932100069B0598FFF782FEA4
:107F2000431CB3D1012040420BB0F0BD32830008A6
:107F300021830008C9B28218904201D10020704705
:107F400003788B42FBD00130F6E710B5884202D9A6
:107F50008B18984208D300239A4207D0CC5CC454B3
:107F60000133F9E78B5C8354013AFBD210BD00006A
:107F700070B50500002910D00C1F2368002B00DA13
:107F8000E418280000F0D4F81D4A1368002B05D12E
:107F900063601460280000F0CCF870BDA34209D9DA
:107FA000216860188342F3D118685B68411821602A
:107FB000EEE713005A68002A01D0A242F9D91968E5
:107FC0005818A0420BD1206809185818196082422D
:107FD000E0D110685268411819605A60DAE7A0428F
:107FE00002D90C232B60D5E721686018824203D1A7
:107FF000106852684118216062605C60CAE7C04640
:10800000D8000020032370B5CD1C9D430835060021
:108010000C2D1ED20C25A9421DD8300000F088F886
:10802000254A14682100002919D1244C2368002B0B
:1080300003D1300000F06AF820602900300000F021
:1080400065F8431C2CD10C233000336000F071F82C
:1080500003E0002DDFDA0C233360002070BD0B68D5
:108060005B1B1AD40B2B03D90B60CC18256003E0E3
:108070008C420ED163681360300000F05AF8200083
:1080800007220B30231D9043C31AE7D05A42E25017
:10809000E4E74B6863600C00EEE70C004968C2E758
:1080A0000323C41C9C43A042E0D0211A300000F0FE
:1080B0002DF8431CDAD1C6E7D8000020DC000020F0
:1080C000F8B507000D001600002905D11100FFF7D3
:1080D00099FF04002000F8BD002A03D1FFF748FFF4
:1080E0003400F7E700F026F82C008642F2D9310080
:1080F0003800FFF787FF041EECD029003200FFF79D
:10810000F7FB29003800FFF733FFE3E7002370B5E2
:10811000064C050008002360F8F73EFE431C03D11F
:108120002368002B00D02B6070BDC046A406002041
:10813000704770470B1F1B68181F002B01DA0B5884
:10814000C0187047F8B5C046F8BC08BC9E467047DA
:0C815000F8B5C046F8BC08BC9E4670475D
:10815C002E74787400000000000000004C656374FD
:10816C00757261256400000041780920417909206D
:10817C00417A09204778092047790920477A092054
:10818C0054656D7009200A200A000000256409203E
:10819C00256409202564092025640920256409200B
:1081AC0025640920256409200A0000000203040547
:1081BC00060708090A0B0C0D0E0F10100102030420
:1081CC0005060708090A0B0C0D0E0F10222A2B2C82
:1081DC003A3B3C3D3E3F5B5D7C7F0000EBFE904DAF
:1081EC0053444F53352E30004E4F204E414D4520B9
:1081FC002020204641543332202020004E4F204E68
:10820C00414D452020202046415420202020200094
:10821C00000000000000000001020304060708092A
:10822C000000000001020304809A90B68EB78F8084
:10823C00D2D3D4D8D7DE8E8F909292E299E3EAEB28
:10824C0059999A9D9C9D9E9FB5D6E0E9A5A5A6A798
:10825C00A8A9AAABAC21AEAFB0B1B2B3B4B5B6B7A6
:10826C00B8B9BABBBCBDBEBFC0C1C2C3C4C5C7C709
:10827C00C8C9CACBCCCDCECFD0D1D2D3D4D5D6D7FA
:10828C00D8D9DADBDCDDDEDFE0E1E2E3E5E5E6E7E9
:10829C00E7E9EAEBEDEDEEEFF0F1F2F3F4F5F6F7DA
:1082AC00F8F9FAFBFCFDFEFF347500081C7500089C
:1082BC00487500085C7500085C7500085C75000862
:1082CC005C7500085C7500085C7500085C7500083E
:1082DC005C7500085C7500085C7500083E7500084C
:1082EC005C7500085C7500085C7500089A740008E1
:1082FC005C750008487500085C7500085C75000822
:10830C0052750008232D302B2000686C4C006566DC
:10831C0067454647003031323334353637383941CA
:10832C0042434445460030313233343536373839E0
:08833C006162636465660000E4
:04834400E900000844
:04834800C100000868
:10834C0000127A00040000000100000081380008CF
:10835C00A1380008C1380008F1380008213900089C
:10836C0001000000280000200000000000000000B8
:10837C0000000000000000000000000000000000F1
:10838C0000000000000000000000000000000000E1
:10839C0000000000000000000000000000000000D1
:1083AC0000000000000000000000000000000000C1
:1083BC0000000000000000000000000000000000B1
:0883CC000000000000000000A9
:04000005080078492E
:00000001FF
